{
	"data": {
		"bytecode": {
			"linkReferences": {},
			"object": "608060405234801561001057600080fd5b506000600c81905550611fa3806100286000396000f3fe608060405234801561001057600080fd5b50600436106100cf5760003560e01c8063a61674c11161008c578063cb51bba911610066578063cb51bba914610270578063d08e6fc3146102a0578063d63fadc4146102be578063f800d332146102dc576100cf565b8063a61674c1146101e0578063b7f9a5ab14610210578063b9db15b414610240576100cf565b8063050cc5ce146100d457806312655a6d146100f057806312f27be614610120578063260492cf1461015057806349de03ec146101805780634d0aafa9146101b0575b600080fd5b6100ee60048036038101906100e9919061157e565b6102f8565b005b61010a60048036038101906101059190611511565b610626565b604051610117919061197f565b60405180910390f35b61013a6004803603810190610135919061153e565b61074e565b604051610147919061197f565b60405180910390f35b61016a6004803603810190610165919061153e565b610877565b6040516101779190611a43565b60405180910390f35b61019a60048036038101906101959190611511565b610917565b6040516101a79190611a43565b60405180910390f35b6101ca60048036038101906101c59190611511565b6109b6565b6040516101d79190611a43565b60405180910390f35b6101fa60048036038101906101f5919061153e565b610a39565b6040516102079190611a43565b60405180910390f35b61022a60048036038101906102259190611511565b610ad9565b604051610237919061193b565b60405180910390f35b61025a60048036038101906102559190611511565b610b7d565b6040516102679190611a21565b60405180910390f35b61028a60048036038101906102859190611511565b610ea6565b6040516102979190611a43565b60405180910390f35b6102a8610eca565b6040516102b59190611a43565b60405180910390f35b6102c6610ed0565b6040516102d3919061195d565b60405180910390f35b6102f660048036038101906102f19190611456565b610f28565b005b600084101561033c576040517f08c379a0000000000000000000000000000000000000000000000000000000008152600401610333906119c1565b60405180910390fd5b60008311801561034d575060058311155b61038c576040517f08c379a0000000000000000000000000000000000000000000000000000000008152600401610383906119a1565b60405180910390fd5b60001515600f600086815260200190815260200160002060003373ffffffffffffffffffffffffffffffffffffffff1673ffffffffffffffffffffffffffffffffffffffff16815260200190815260200160002060030160009054906101000a900460ff16151514610433576040517f08c379a000000000000000000000000000000000000000000000000000000000815260040161042a906119e1565b60405180910390fd5b6000600d600086815260200190815260200160002090508381600401600082825461045e9190611bbd565b9250508190555080600501600081548092919061047a90611d25565b919050555080600701339080600181540180825580915050600190039060005260206000200160009091909190916101000a81548173ffffffffffffffffffffffffffffffffffffffff021916908373ffffffffffffffffffffffffffffffffffffffff1602179055508360086000018190555082600860010190805190602001906105079291906111df565b50816008600201819055506001600860030160006101000a81548160ff0219169083151502179055506008600f600087815260200190815260200160002060003373ffffffffffffffffffffffffffffffffffffffff1673ffffffffffffffffffffffffffffffffffffffff1681526020019081526020016000206000820154816000015560018201816001019080546105a090611cc2565b6105ab929190611265565b50600282015481600201556003820160009054906101000a900460ff168160030160006101000a81548160ff0219169083151502179055509050507ff531c64d2ced82cd4960959b4fb7af627a9d80dc06da028c08623fbe1eb22a668585604051610617929190611a8e565b60405180910390a15050505050565b60606000821161066b576040517f08c379a0000000000000000000000000000000000000000000000000000000008152600401610662906119c1565b60405180910390fd5b600f600083815260200190815260200160002060003373ffffffffffffffffffffffffffffffffffffffff1673ffffffffffffffffffffffffffffffffffffffff16815260200190815260200160002060010180546106c990611cc2565b80601f01602080910402602001604051908101604052809291908181526020018280546106f590611cc2565b80156107425780601f1061071757610100808354040283529160200191610742565b820191906000526020600020905b81548152906001019060200180831161072557829003601f168201915b50505050509050919050565b606060008311610793576040517f08c379a000000000000000000000000000000000000000000000000000000000815260040161078a906119c1565b60405180910390fd5b600f600084815260200190815260200160002060008373ffffffffffffffffffffffffffffffffffffffff1673ffffffffffffffffffffffffffffffffffffffff16815260200190815260200160002060010180546107f190611cc2565b80601f016020809104026020016040519081016040528092919081815260200182805461081d90611cc2565b801561086a5780601f1061083f5761010080835404028352916020019161086a565b820191906000526020600020905b81548152906001019060200180831161084d57829003601f168201915b5050505050905092915050565b60008083116108bb576040517f08c379a00000000000000000000000000000000000000000000000000000000081526004016108b2906119c1565b60405180910390fd5b600f600084815260200190815260200160002060008373ffffffffffffffffffffffffffffffffffffffff1673ffffffffffffffffffffffffffffffffffffffff16815260200190815260200160002060000154905092915050565b600080821161095b576040517f08c379a0000000000000000000000000000000000000000000000000000000008152600401610952906119c1565b60405180910390fd5b600f600083815260200190815260200160002060003373ffffffffffffffffffffffffffffffffffffffff1673ffffffffffffffffffffffffffffffffffffffff168152602001908152602001600020600001549050919050565b60008082116109fa576040517f08c379a00000000000000000000000000000000000000000000000000000000081526004016109f1906119c1565b60405180910390fd5b600d600083815260200190815260200160002060050154600d600084815260200190815260200160002060040154610a329190611c13565b9050919050565b6000808311610a7d576040517f08c379a0000000000000000000000000000000000000000000000000000000008152600401610a74906119c1565b60405180910390fd5b600f600084815260200190815260200160002060008373ffffffffffffffffffffffffffffffffffffffff1673ffffffffffffffffffffffffffffffffffffffff16815260200190815260200160002060020154905092915050565b6060600d6000838152602001908152602001600020600701805480602002602001604051908101604052809291908181526020018280548015610b7157602002820191906000526020600020905b8160009054906101000a900473ffffffffffffffffffffffffffffffffffffffff1673ffffffffffffffffffffffffffffffffffffffff1681526020019060010190808311610b27575b50505050509050919050565b610b856112f2565b60008211610bc8576040517f08c379a0000000000000000000000000000000000000000000000000000000008152600401610bbf906119c1565b60405180910390fd5b600d600083815260200190815260200160002060405180610100016040529081600082018054610bf790611cc2565b80601f0160208091040260200160405190810160405280929190818152602001828054610c2390611cc2565b8015610c705780601f10610c4557610100808354040283529160200191610c70565b820191906000526020600020905b815481529060010190602001808311610c5357829003601f168201915b50505050508152602001600182018054610c8990611cc2565b80601f0160208091040260200160405190810160405280929190818152602001828054610cb590611cc2565b8015610d025780601f10610cd757610100808354040283529160200191610d02565b820191906000526020600020905b815481529060010190602001808311610ce557829003601f168201915b5050505050815260200160028201548152602001600382018054610d2590611cc2565b80601f0160208091040260200160405190810160405280929190818152602001828054610d5190611cc2565b8015610d9e5780601f10610d7357610100808354040283529160200191610d9e565b820191906000526020600020905b815481529060010190602001808311610d8157829003601f168201915b5050505050815260200160048201548152602001600582015481526020016006820160009054906101000a900473ffffffffffffffffffffffffffffffffffffffff1673ffffffffffffffffffffffffffffffffffffffff1673ffffffffffffffffffffffffffffffffffffffff16815260200160078201805480602002602001604051908101604052809291908181526020018280548015610e9657602002820191906000526020600020905b8160009054906101000a900473ffffffffffffffffffffffffffffffffffffffff1673ffffffffffffffffffffffffffffffffffffffff1681526020019060010190808311610e4c575b5050505050815250509050919050565b600e8181548110610eb657600080fd5b906000526020600020016000915090505481565b600c5481565b6060600e805480602002602001604051908101604052809291908181526020018280548015610f1e57602002820191906000526020600020905b815481526020019060010190808311610f0a575b5050505050905090565b7fc5d2460186f7233c927e7db2dcc703c0e500b653ca82273b7bfad8045d85a47084805190602001201415610f92576040517f08c379a0000000000000000000000000000000000000000000000000000000008152600401610f8990611a01565b60405180910390fd5b600c6000815480929190610fa590611d25565b91905055506000600c54905084600080019080519060200190610fc99291906111df565b508360006001019080519060200190610fe39291906111df565b508260006002018190555081600060030190805190602001906110079291906111df565b50600080600401819055506000806005018190555033600060060160006101000a81548173ffffffffffffffffffffffffffffffffffffffff021916908373ffffffffffffffffffffffffffffffffffffffff160217905550600e8190806001815401808255809150506001900390600052602060002001600090919091909150556000600d600083815260200190815260200160002060008201816000019080546110b290611cc2565b6110bd929190611265565b5060018201816001019080546110d290611cc2565b6110dd929190611265565b506002820154816002015560038201816003019080546110fc90611cc2565b611107929190611265565b5060048201548160040155600582015481600501556006820160009054906101000a900473ffffffffffffffffffffffffffffffffffffffff168160060160006101000a81548173ffffffffffffffffffffffffffffffffffffffff021916908373ffffffffffffffffffffffffffffffffffffffff160217905550600782018160070190805461119992919061134d565b509050507f3ced9a5cf8ed92aa569e06433f3d00b956864371c05f133e766fdee3cdfb529e600c54866040516111d0929190611a5e565b60405180910390a15050505050565b8280546111eb90611cc2565b90600052602060002090601f01602090048101928261120d5760008555611254565b82601f1061122657805160ff1916838001178555611254565b82800160010185558215611254579182015b82811115611253578251825591602001919060010190611238565b5b509050611261919061139f565b5090565b82805461127190611cc2565b90600052602060002090601f01602090048101928261129357600085556112e1565b82601f106112a457805485556112e1565b828001600101855582156112e157600052602060002091601f016020900482015b828111156112e05782548255916001019190600101906112c5565b5b5090506112ee919061139f565b5090565b604051806101000160405280606081526020016060815260200160008152602001606081526020016000815260200160008152602001600073ffffffffffffffffffffffffffffffffffffffff168152602001606081525090565b82805482825590600052602060002090810192821561138e5760005260206000209182015b8281111561138d578254825591600101919060010190611372565b5b50905061139b919061139f565b5090565b5b808211156113b85760008160009055506001016113a0565b5090565b60006113cf6113ca84611adc565b611ab7565b9050828152602081018484840111156113eb576113ea611e2f565b5b6113f6848285611c80565b509392505050565b60008135905061140d81611f3f565b92915050565b600082601f83011261142857611427611e2a565b5b81356114388482602086016113bc565b91505092915050565b60008135905061145081611f56565b92915050565b600080600080608085870312156114705761146f611e39565b5b600085013567ffffffffffffffff81111561148e5761148d611e34565b5b61149a87828801611413565b945050602085013567ffffffffffffffff8111156114bb576114ba611e34565b5b6114c787828801611413565b93505060406114d887828801611441565b925050606085013567ffffffffffffffff8111156114f9576114f8611e34565b5b61150587828801611413565b91505092959194509250565b60006020828403121561152757611526611e39565b5b600061153584828501611441565b91505092915050565b6000806040838503121561155557611554611e39565b5b600061156385828601611441565b9250506020611574858286016113fe565b9150509250929050565b6000806000806080858703121561159857611597611e39565b5b60006115a687828801611441565b94505060206115b787828801611441565b935050604085013567ffffffffffffffff8111156115d8576115d7611e34565b5b6115e487828801611413565b92505060606115f587828801611441565b91505092959194509250565b600061160d8383611631565b60208301905092915050565b6000611625838361191d565b60208301905092915050565b61163a81611c44565b82525050565b600061164b82611b2d565b6116558185611b68565b935061166083611b0d565b8060005b838110156116915781516116788882611601565b975061168383611b4e565b925050600181019050611664565b5085935050505092915050565b60006116a982611b2d565b6116b38185611b79565b93506116be83611b0d565b8060005b838110156116ef5781516116d68882611601565b97506116e183611b4e565b9250506001810190506116c2565b5085935050505092915050565b600061170782611b38565b6117118185611b8a565b935061171c83611b1d565b8060005b8381101561174d5781516117348882611619565b975061173f83611b5b565b925050600181019050611720565b5085935050505092915050565b600061176582611b43565b61176f8185611b9b565b935061177f818560208601611c8f565b61178881611e3e565b840191505092915050565b600061179e82611b43565b6117a88185611bac565b93506117b8818560208601611c8f565b6117c181611e3e565b840191505092915050565b60006117d9602783611bac565b91506117e482611e4f565b604082019050919050565b60006117fc601483611bac565b915061180782611e9e565b602082019050919050565b600061181f602283611bac565b915061182a82611ec7565b604082019050919050565b6000611842601783611bac565b915061184d82611f16565b602082019050919050565b6000610100830160008301518482036000860152611876828261175a565b91505060208301518482036020860152611890828261175a565b91505060408301516118a5604086018261191d565b50606083015184820360608601526118bd828261175a565b91505060808301516118d2608086018261191d565b5060a08301516118e560a086018261191d565b5060c08301516118f860c0860182611631565b5060e083015184820360e08601526119108282611640565b9150508091505092915050565b61192681611c76565b82525050565b61193581611c76565b82525050565b60006020820190508181036000830152611955818461169e565b905092915050565b6000602082019050818103600083015261197781846116fc565b905092915050565b600060208201905081810360008301526119998184611793565b905092915050565b600060208201905081810360008301526119ba816117cc565b9050919050565b600060208201905081810360008301526119da816117ef565b9050919050565b600060208201905081810360008301526119fa81611812565b9050919050565b60006020820190508181036000830152611a1a81611835565b9050919050565b60006020820190508181036000830152611a3b8184611858565b905092915050565b6000602082019050611a58600083018461192c565b92915050565b6000604082019050611a73600083018561192c565b8181036020830152611a858184611793565b90509392505050565b6000604082019050611aa3600083018561192c565b611ab0602083018461192c565b9392505050565b6000611ac1611ad2565b9050611acd8282611cf4565b919050565b6000604051905090565b600067ffffffffffffffff821115611af757611af6611dfb565b5b611b0082611e3e565b9050602081019050919050565b6000819050602082019050919050565b6000819050602082019050919050565b600081519050919050565b600081519050919050565b600081519050919050565b6000602082019050919050565b6000602082019050919050565b600082825260208201905092915050565b600082825260208201905092915050565b600082825260208201905092915050565b600082825260208201905092915050565b600082825260208201905092915050565b6000611bc882611c76565b9150611bd383611c76565b9250827fffffffffffffffffffffffffffffffffffffffffffffffffffffffffffffffff03821115611c0857611c07611d6e565b5b828201905092915050565b6000611c1e82611c76565b9150611c2983611c76565b925082611c3957611c38611d9d565b5b828204905092915050565b6000611c4f82611c56565b9050919050565b600073ffffffffffffffffffffffffffffffffffffffff82169050919050565b6000819050919050565b82818337600083830152505050565b60005b83811015611cad578082015181840152602081019050611c92565b83811115611cbc576000848401525b50505050565b60006002820490506001821680611cda57607f821691505b60208210811415611cee57611ced611dcc565b5b50919050565b611cfd82611e3e565b810181811067ffffffffffffffff82111715611d1c57611d1b611dfb565b5b80604052505050565b6000611d3082611c76565b91507fffffffffffffffffffffffffffffffffffffffffffffffffffffffffffffffff821415611d6357611d62611d6e565b5b600182019050919050565b7f4e487b7100000000000000000000000000000000000000000000000000000000600052601160045260246000fd5b7f4e487b7100000000000000000000000000000000000000000000000000000000600052601260045260246000fd5b7f4e487b7100000000000000000000000000000000000000000000000000000000600052602260045260246000fd5b7f4e487b7100000000000000000000000000000000000000000000000000000000600052604160045260246000fd5b600080fd5b600080fd5b600080fd5b600080fd5b6000601f19601f8301169050919050565b7f50726f6475637420726174696e672073686f756c6420626520696e20312d352060008201527f72616e6765202100000000000000000000000000000000000000000000000000602082015250565b7f50726f6475637469642072657175697265642021000000000000000000000000600082015250565b7f50726f6475637420616c7265616479207265766965776564206279207573657260008201527f2021000000000000000000000000000000000000000000000000000000000000602082015250565b7f50726f64756374204e616d652072657175697265642021000000000000000000600082015250565b611f4881611c44565b8114611f5357600080fd5b50565b611f5f81611c76565b8114611f6a57600080fd5b5056fea26469706673582212204149e74df22d8aab4b272b1e22ad66c71b648b2ce75cdfb3b60e558d9d9501ad64736f6c63430008060033",
			"opcodes": "PUSH1 0x80 PUSH1 0x40 MSTORE CALLVALUE DUP1 ISZERO PUSH2 0x10 JUMPI PUSH1 0x0 DUP1 REVERT JUMPDEST POP PUSH1 0x0 PUSH1 0xC DUP2 SWAP1 SSTORE POP PUSH2 0x1FA3 DUP1 PUSH2 0x28 PUSH1 0x0 CODECOPY PUSH1 0x0 RETURN INVALID PUSH1 0x80 PUSH1 0x40 MSTORE CALLVALUE DUP1 ISZERO PUSH2 0x10 JUMPI PUSH1 0x0 DUP1 REVERT JUMPDEST POP PUSH1 0x4 CALLDATASIZE LT PUSH2 0xCF JUMPI PUSH1 0x0 CALLDATALOAD PUSH1 0xE0 SHR DUP1 PUSH4 0xA61674C1 GT PUSH2 0x8C JUMPI DUP1 PUSH4 0xCB51BBA9 GT PUSH2 0x66 JUMPI DUP1 PUSH4 0xCB51BBA9 EQ PUSH2 0x270 JUMPI DUP1 PUSH4 0xD08E6FC3 EQ PUSH2 0x2A0 JUMPI DUP1 PUSH4 0xD63FADC4 EQ PUSH2 0x2BE JUMPI DUP1 PUSH4 0xF800D332 EQ PUSH2 0x2DC JUMPI PUSH2 0xCF JUMP JUMPDEST DUP1 PUSH4 0xA61674C1 EQ PUSH2 0x1E0 JUMPI DUP1 PUSH4 0xB7F9A5AB EQ PUSH2 0x210 JUMPI DUP1 PUSH4 0xB9DB15B4 EQ PUSH2 0x240 JUMPI PUSH2 0xCF JUMP JUMPDEST DUP1 PUSH4 0x50CC5CE EQ PUSH2 0xD4 JUMPI DUP1 PUSH4 0x12655A6D EQ PUSH2 0xF0 JUMPI DUP1 PUSH4 0x12F27BE6 EQ PUSH2 0x120 JUMPI DUP1 PUSH4 0x260492CF EQ PUSH2 0x150 JUMPI DUP1 PUSH4 0x49DE03EC EQ PUSH2 0x180 JUMPI DUP1 PUSH4 0x4D0AAFA9 EQ PUSH2 0x1B0 JUMPI JUMPDEST PUSH1 0x0 DUP1 REVERT JUMPDEST PUSH2 0xEE PUSH1 0x4 DUP1 CALLDATASIZE SUB DUP2 ADD SWAP1 PUSH2 0xE9 SWAP2 SWAP1 PUSH2 0x157E JUMP JUMPDEST PUSH2 0x2F8 JUMP JUMPDEST STOP JUMPDEST PUSH2 0x10A PUSH1 0x4 DUP1 CALLDATASIZE SUB DUP2 ADD SWAP1 PUSH2 0x105 SWAP2 SWAP1 PUSH2 0x1511 JUMP JUMPDEST PUSH2 0x626 JUMP JUMPDEST PUSH1 0x40 MLOAD PUSH2 0x117 SWAP2 SWAP1 PUSH2 0x197F JUMP JUMPDEST PUSH1 0x40 MLOAD DUP1 SWAP2 SUB SWAP1 RETURN JUMPDEST PUSH2 0x13A PUSH1 0x4 DUP1 CALLDATASIZE SUB DUP2 ADD SWAP1 PUSH2 0x135 SWAP2 SWAP1 PUSH2 0x153E JUMP JUMPDEST PUSH2 0x74E JUMP JUMPDEST PUSH1 0x40 MLOAD PUSH2 0x147 SWAP2 SWAP1 PUSH2 0x197F JUMP JUMPDEST PUSH1 0x40 MLOAD DUP1 SWAP2 SUB SWAP1 RETURN JUMPDEST PUSH2 0x16A PUSH1 0x4 DUP1 CALLDATASIZE SUB DUP2 ADD SWAP1 PUSH2 0x165 SWAP2 SWAP1 PUSH2 0x153E JUMP JUMPDEST PUSH2 0x877 JUMP JUMPDEST PUSH1 0x40 MLOAD PUSH2 0x177 SWAP2 SWAP1 PUSH2 0x1A43 JUMP JUMPDEST PUSH1 0x40 MLOAD DUP1 SWAP2 SUB SWAP1 RETURN JUMPDEST PUSH2 0x19A PUSH1 0x4 DUP1 CALLDATASIZE SUB DUP2 ADD SWAP1 PUSH2 0x195 SWAP2 SWAP1 PUSH2 0x1511 JUMP JUMPDEST PUSH2 0x917 JUMP JUMPDEST PUSH1 0x40 MLOAD PUSH2 0x1A7 SWAP2 SWAP1 PUSH2 0x1A43 JUMP JUMPDEST PUSH1 0x40 MLOAD DUP1 SWAP2 SUB SWAP1 RETURN JUMPDEST PUSH2 0x1CA PUSH1 0x4 DUP1 CALLDATASIZE SUB DUP2 ADD SWAP1 PUSH2 0x1C5 SWAP2 SWAP1 PUSH2 0x1511 JUMP JUMPDEST PUSH2 0x9B6 JUMP JUMPDEST PUSH1 0x40 MLOAD PUSH2 0x1D7 SWAP2 SWAP1 PUSH2 0x1A43 JUMP JUMPDEST PUSH1 0x40 MLOAD DUP1 SWAP2 SUB SWAP1 RETURN JUMPDEST PUSH2 0x1FA PUSH1 0x4 DUP1 CALLDATASIZE SUB DUP2 ADD SWAP1 PUSH2 0x1F5 SWAP2 SWAP1 PUSH2 0x153E JUMP JUMPDEST PUSH2 0xA39 JUMP JUMPDEST PUSH1 0x40 MLOAD PUSH2 0x207 SWAP2 SWAP1 PUSH2 0x1A43 JUMP JUMPDEST PUSH1 0x40 MLOAD DUP1 SWAP2 SUB SWAP1 RETURN JUMPDEST PUSH2 0x22A PUSH1 0x4 DUP1 CALLDATASIZE SUB DUP2 ADD SWAP1 PUSH2 0x225 SWAP2 SWAP1 PUSH2 0x1511 JUMP JUMPDEST PUSH2 0xAD9 JUMP JUMPDEST PUSH1 0x40 MLOAD PUSH2 0x237 SWAP2 SWAP1 PUSH2 0x193B JUMP JUMPDEST PUSH1 0x40 MLOAD DUP1 SWAP2 SUB SWAP1 RETURN JUMPDEST PUSH2 0x25A PUSH1 0x4 DUP1 CALLDATASIZE SUB DUP2 ADD SWAP1 PUSH2 0x255 SWAP2 SWAP1 PUSH2 0x1511 JUMP JUMPDEST PUSH2 0xB7D JUMP JUMPDEST PUSH1 0x40 MLOAD PUSH2 0x267 SWAP2 SWAP1 PUSH2 0x1A21 JUMP JUMPDEST PUSH1 0x40 MLOAD DUP1 SWAP2 SUB SWAP1 RETURN JUMPDEST PUSH2 0x28A PUSH1 0x4 DUP1 CALLDATASIZE SUB DUP2 ADD SWAP1 PUSH2 0x285 SWAP2 SWAP1 PUSH2 0x1511 JUMP JUMPDEST PUSH2 0xEA6 JUMP JUMPDEST PUSH1 0x40 MLOAD PUSH2 0x297 SWAP2 SWAP1 PUSH2 0x1A43 JUMP JUMPDEST PUSH1 0x40 MLOAD DUP1 SWAP2 SUB SWAP1 RETURN JUMPDEST PUSH2 0x2A8 PUSH2 0xECA JUMP JUMPDEST PUSH1 0x40 MLOAD PUSH2 0x2B5 SWAP2 SWAP1 PUSH2 0x1A43 JUMP JUMPDEST PUSH1 0x40 MLOAD DUP1 SWAP2 SUB SWAP1 RETURN JUMPDEST PUSH2 0x2C6 PUSH2 0xED0 JUMP JUMPDEST PUSH1 0x40 MLOAD PUSH2 0x2D3 SWAP2 SWAP1 PUSH2 0x195D JUMP JUMPDEST PUSH1 0x40 MLOAD DUP1 SWAP2 SUB SWAP1 RETURN JUMPDEST PUSH2 0x2F6 PUSH1 0x4 DUP1 CALLDATASIZE SUB DUP2 ADD SWAP1 PUSH2 0x2F1 SWAP2 SWAP1 PUSH2 0x1456 JUMP JUMPDEST PUSH2 0xF28 JUMP JUMPDEST STOP JUMPDEST PUSH1 0x0 DUP5 LT ISZERO PUSH2 0x33C JUMPI PUSH1 0x40 MLOAD PUSH32 0x8C379A000000000000000000000000000000000000000000000000000000000 DUP2 MSTORE PUSH1 0x4 ADD PUSH2 0x333 SWAP1 PUSH2 0x19C1 JUMP JUMPDEST PUSH1 0x40 MLOAD DUP1 SWAP2 SUB SWAP1 REVERT JUMPDEST PUSH1 0x0 DUP4 GT DUP1 ISZERO PUSH2 0x34D JUMPI POP PUSH1 0x5 DUP4 GT ISZERO JUMPDEST PUSH2 0x38C JUMPI PUSH1 0x40 MLOAD PUSH32 0x8C379A000000000000000000000000000000000000000000000000000000000 DUP2 MSTORE PUSH1 0x4 ADD PUSH2 0x383 SWAP1 PUSH2 0x19A1 JUMP JUMPDEST PUSH1 0x40 MLOAD DUP1 SWAP2 SUB SWAP1 REVERT JUMPDEST PUSH1 0x0 ISZERO ISZERO PUSH1 0xF PUSH1 0x0 DUP7 DUP2 MSTORE PUSH1 0x20 ADD SWAP1 DUP2 MSTORE PUSH1 0x20 ADD PUSH1 0x0 KECCAK256 PUSH1 0x0 CALLER PUSH20 0xFFFFFFFFFFFFFFFFFFFFFFFFFFFFFFFFFFFFFFFF AND PUSH20 0xFFFFFFFFFFFFFFFFFFFFFFFFFFFFFFFFFFFFFFFF AND DUP2 MSTORE PUSH1 0x20 ADD SWAP1 DUP2 MSTORE PUSH1 0x20 ADD PUSH1 0x0 KECCAK256 PUSH1 0x3 ADD PUSH1 0x0 SWAP1 SLOAD SWAP1 PUSH2 0x100 EXP SWAP1 DIV PUSH1 0xFF AND ISZERO ISZERO EQ PUSH2 0x433 JUMPI PUSH1 0x40 MLOAD PUSH32 0x8C379A000000000000000000000000000000000000000000000000000000000 DUP2 MSTORE PUSH1 0x4 ADD PUSH2 0x42A SWAP1 PUSH2 0x19E1 JUMP JUMPDEST PUSH1 0x40 MLOAD DUP1 SWAP2 SUB SWAP1 REVERT JUMPDEST PUSH1 0x0 PUSH1 0xD PUSH1 0x0 DUP7 DUP2 MSTORE PUSH1 0x20 ADD SWAP1 DUP2 MSTORE PUSH1 0x20 ADD PUSH1 0x0 KECCAK256 SWAP1 POP DUP4 DUP2 PUSH1 0x4 ADD PUSH1 0x0 DUP3 DUP3 SLOAD PUSH2 0x45E SWAP2 SWAP1 PUSH2 0x1BBD JUMP JUMPDEST SWAP3 POP POP DUP2 SWAP1 SSTORE POP DUP1 PUSH1 0x5 ADD PUSH1 0x0 DUP2 SLOAD DUP1 SWAP3 SWAP2 SWAP1 PUSH2 0x47A SWAP1 PUSH2 0x1D25 JUMP JUMPDEST SWAP2 SWAP1 POP SSTORE POP DUP1 PUSH1 0x7 ADD CALLER SWAP1 DUP1 PUSH1 0x1 DUP2 SLOAD ADD DUP1 DUP3 SSTORE DUP1 SWAP2 POP POP PUSH1 0x1 SWAP1 SUB SWAP1 PUSH1 0x0 MSTORE PUSH1 0x20 PUSH1 0x0 KECCAK256 ADD PUSH1 0x0 SWAP1 SWAP2 SWAP1 SWAP2 SWAP1 SWAP2 PUSH2 0x100 EXP DUP2 SLOAD DUP2 PUSH20 0xFFFFFFFFFFFFFFFFFFFFFFFFFFFFFFFFFFFFFFFF MUL NOT AND SWAP1 DUP4 PUSH20 0xFFFFFFFFFFFFFFFFFFFFFFFFFFFFFFFFFFFFFFFF AND MUL OR SWAP1 SSTORE POP DUP4 PUSH1 0x8 PUSH1 0x0 ADD DUP2 SWAP1 SSTORE POP DUP3 PUSH1 0x8 PUSH1 0x1 ADD SWAP1 DUP1 MLOAD SWAP1 PUSH1 0x20 ADD SWAP1 PUSH2 0x507 SWAP3 SWAP2 SWAP1 PUSH2 0x11DF JUMP JUMPDEST POP DUP2 PUSH1 0x8 PUSH1 0x2 ADD DUP2 SWAP1 SSTORE POP PUSH1 0x1 PUSH1 0x8 PUSH1 0x3 ADD PUSH1 0x0 PUSH2 0x100 EXP DUP2 SLOAD DUP2 PUSH1 0xFF MUL NOT AND SWAP1 DUP4 ISZERO ISZERO MUL OR SWAP1 SSTORE POP PUSH1 0x8 PUSH1 0xF PUSH1 0x0 DUP8 DUP2 MSTORE PUSH1 0x20 ADD SWAP1 DUP2 MSTORE PUSH1 0x20 ADD PUSH1 0x0 KECCAK256 PUSH1 0x0 CALLER PUSH20 0xFFFFFFFFFFFFFFFFFFFFFFFFFFFFFFFFFFFFFFFF AND PUSH20 0xFFFFFFFFFFFFFFFFFFFFFFFFFFFFFFFFFFFFFFFF AND DUP2 MSTORE PUSH1 0x20 ADD SWAP1 DUP2 MSTORE PUSH1 0x20 ADD PUSH1 0x0 KECCAK256 PUSH1 0x0 DUP3 ADD SLOAD DUP2 PUSH1 0x0 ADD SSTORE PUSH1 0x1 DUP3 ADD DUP2 PUSH1 0x1 ADD SWAP1 DUP1 SLOAD PUSH2 0x5A0 SWAP1 PUSH2 0x1CC2 JUMP JUMPDEST PUSH2 0x5AB SWAP3 SWAP2 SWAP1 PUSH2 0x1265 JUMP JUMPDEST POP PUSH1 0x2 DUP3 ADD SLOAD DUP2 PUSH1 0x2 ADD SSTORE PUSH1 0x3 DUP3 ADD PUSH1 0x0 SWAP1 SLOAD SWAP1 PUSH2 0x100 EXP SWAP1 DIV PUSH1 0xFF AND DUP2 PUSH1 0x3 ADD PUSH1 0x0 PUSH2 0x100 EXP DUP2 SLOAD DUP2 PUSH1 0xFF MUL NOT AND SWAP1 DUP4 ISZERO ISZERO MUL OR SWAP1 SSTORE POP SWAP1 POP POP PUSH32 0xF531C64D2CED82CD4960959B4FB7AF627A9D80DC06DA028C08623FBE1EB22A66 DUP6 DUP6 PUSH1 0x40 MLOAD PUSH2 0x617 SWAP3 SWAP2 SWAP1 PUSH2 0x1A8E JUMP JUMPDEST PUSH1 0x40 MLOAD DUP1 SWAP2 SUB SWAP1 LOG1 POP POP POP POP POP JUMP JUMPDEST PUSH1 0x60 PUSH1 0x0 DUP3 GT PUSH2 0x66B JUMPI PUSH1 0x40 MLOAD PUSH32 0x8C379A000000000000000000000000000000000000000000000000000000000 DUP2 MSTORE PUSH1 0x4 ADD PUSH2 0x662 SWAP1 PUSH2 0x19C1 JUMP JUMPDEST PUSH1 0x40 MLOAD DUP1 SWAP2 SUB SWAP1 REVERT JUMPDEST PUSH1 0xF PUSH1 0x0 DUP4 DUP2 MSTORE PUSH1 0x20 ADD SWAP1 DUP2 MSTORE PUSH1 0x20 ADD PUSH1 0x0 KECCAK256 PUSH1 0x0 CALLER PUSH20 0xFFFFFFFFFFFFFFFFFFFFFFFFFFFFFFFFFFFFFFFF AND PUSH20 0xFFFFFFFFFFFFFFFFFFFFFFFFFFFFFFFFFFFFFFFF AND DUP2 MSTORE PUSH1 0x20 ADD SWAP1 DUP2 MSTORE PUSH1 0x20 ADD PUSH1 0x0 KECCAK256 PUSH1 0x1 ADD DUP1 SLOAD PUSH2 0x6C9 SWAP1 PUSH2 0x1CC2 JUMP JUMPDEST DUP1 PUSH1 0x1F ADD PUSH1 0x20 DUP1 SWAP2 DIV MUL PUSH1 0x20 ADD PUSH1 0x40 MLOAD SWAP1 DUP2 ADD PUSH1 0x40 MSTORE DUP1 SWAP3 SWAP2 SWAP1 DUP2 DUP2 MSTORE PUSH1 0x20 ADD DUP3 DUP1 SLOAD PUSH2 0x6F5 SWAP1 PUSH2 0x1CC2 JUMP JUMPDEST DUP1 ISZERO PUSH2 0x742 JUMPI DUP1 PUSH1 0x1F LT PUSH2 0x717 JUMPI PUSH2 0x100 DUP1 DUP4 SLOAD DIV MUL DUP4 MSTORE SWAP2 PUSH1 0x20 ADD SWAP2 PUSH2 0x742 JUMP JUMPDEST DUP3 ADD SWAP2 SWAP1 PUSH1 0x0 MSTORE PUSH1 0x20 PUSH1 0x0 KECCAK256 SWAP1 JUMPDEST DUP2 SLOAD DUP2 MSTORE SWAP1 PUSH1 0x1 ADD SWAP1 PUSH1 0x20 ADD DUP1 DUP4 GT PUSH2 0x725 JUMPI DUP3 SWAP1 SUB PUSH1 0x1F AND DUP3 ADD SWAP2 JUMPDEST POP POP POP POP POP SWAP1 POP SWAP2 SWAP1 POP JUMP JUMPDEST PUSH1 0x60 PUSH1 0x0 DUP4 GT PUSH2 0x793 JUMPI PUSH1 0x40 MLOAD PUSH32 0x8C379A000000000000000000000000000000000000000000000000000000000 DUP2 MSTORE PUSH1 0x4 ADD PUSH2 0x78A SWAP1 PUSH2 0x19C1 JUMP JUMPDEST PUSH1 0x40 MLOAD DUP1 SWAP2 SUB SWAP1 REVERT JUMPDEST PUSH1 0xF PUSH1 0x0 DUP5 DUP2 MSTORE PUSH1 0x20 ADD SWAP1 DUP2 MSTORE PUSH1 0x20 ADD PUSH1 0x0 KECCAK256 PUSH1 0x0 DUP4 PUSH20 0xFFFFFFFFFFFFFFFFFFFFFFFFFFFFFFFFFFFFFFFF AND PUSH20 0xFFFFFFFFFFFFFFFFFFFFFFFFFFFFFFFFFFFFFFFF AND DUP2 MSTORE PUSH1 0x20 ADD SWAP1 DUP2 MSTORE PUSH1 0x20 ADD PUSH1 0x0 KECCAK256 PUSH1 0x1 ADD DUP1 SLOAD PUSH2 0x7F1 SWAP1 PUSH2 0x1CC2 JUMP JUMPDEST DUP1 PUSH1 0x1F ADD PUSH1 0x20 DUP1 SWAP2 DIV MUL PUSH1 0x20 ADD PUSH1 0x40 MLOAD SWAP1 DUP2 ADD PUSH1 0x40 MSTORE DUP1 SWAP3 SWAP2 SWAP1 DUP2 DUP2 MSTORE PUSH1 0x20 ADD DUP3 DUP1 SLOAD PUSH2 0x81D SWAP1 PUSH2 0x1CC2 JUMP JUMPDEST DUP1 ISZERO PUSH2 0x86A JUMPI DUP1 PUSH1 0x1F LT PUSH2 0x83F JUMPI PUSH2 0x100 DUP1 DUP4 SLOAD DIV MUL DUP4 MSTORE SWAP2 PUSH1 0x20 ADD SWAP2 PUSH2 0x86A JUMP JUMPDEST DUP3 ADD SWAP2 SWAP1 PUSH1 0x0 MSTORE PUSH1 0x20 PUSH1 0x0 KECCAK256 SWAP1 JUMPDEST DUP2 SLOAD DUP2 MSTORE SWAP1 PUSH1 0x1 ADD SWAP1 PUSH1 0x20 ADD DUP1 DUP4 GT PUSH2 0x84D JUMPI DUP3 SWAP1 SUB PUSH1 0x1F AND DUP3 ADD SWAP2 JUMPDEST POP POP POP POP POP SWAP1 POP SWAP3 SWAP2 POP POP JUMP JUMPDEST PUSH1 0x0 DUP1 DUP4 GT PUSH2 0x8BB JUMPI PUSH1 0x40 MLOAD PUSH32 0x8C379A000000000000000000000000000000000000000000000000000000000 DUP2 MSTORE PUSH1 0x4 ADD PUSH2 0x8B2 SWAP1 PUSH2 0x19C1 JUMP JUMPDEST PUSH1 0x40 MLOAD DUP1 SWAP2 SUB SWAP1 REVERT JUMPDEST PUSH1 0xF PUSH1 0x0 DUP5 DUP2 MSTORE PUSH1 0x20 ADD SWAP1 DUP2 MSTORE PUSH1 0x20 ADD PUSH1 0x0 KECCAK256 PUSH1 0x0 DUP4 PUSH20 0xFFFFFFFFFFFFFFFFFFFFFFFFFFFFFFFFFFFFFFFF AND PUSH20 0xFFFFFFFFFFFFFFFFFFFFFFFFFFFFFFFFFFFFFFFF AND DUP2 MSTORE PUSH1 0x20 ADD SWAP1 DUP2 MSTORE PUSH1 0x20 ADD PUSH1 0x0 KECCAK256 PUSH1 0x0 ADD SLOAD SWAP1 POP SWAP3 SWAP2 POP POP JUMP JUMPDEST PUSH1 0x0 DUP1 DUP3 GT PUSH2 0x95B JUMPI PUSH1 0x40 MLOAD PUSH32 0x8C379A000000000000000000000000000000000000000000000000000000000 DUP2 MSTORE PUSH1 0x4 ADD PUSH2 0x952 SWAP1 PUSH2 0x19C1 JUMP JUMPDEST PUSH1 0x40 MLOAD DUP1 SWAP2 SUB SWAP1 REVERT JUMPDEST PUSH1 0xF PUSH1 0x0 DUP4 DUP2 MSTORE PUSH1 0x20 ADD SWAP1 DUP2 MSTORE PUSH1 0x20 ADD PUSH1 0x0 KECCAK256 PUSH1 0x0 CALLER PUSH20 0xFFFFFFFFFFFFFFFFFFFFFFFFFFFFFFFFFFFFFFFF AND PUSH20 0xFFFFFFFFFFFFFFFFFFFFFFFFFFFFFFFFFFFFFFFF AND DUP2 MSTORE PUSH1 0x20 ADD SWAP1 DUP2 MSTORE PUSH1 0x20 ADD PUSH1 0x0 KECCAK256 PUSH1 0x0 ADD SLOAD SWAP1 POP SWAP2 SWAP1 POP JUMP JUMPDEST PUSH1 0x0 DUP1 DUP3 GT PUSH2 0x9FA JUMPI PUSH1 0x40 MLOAD PUSH32 0x8C379A000000000000000000000000000000000000000000000000000000000 DUP2 MSTORE PUSH1 0x4 ADD PUSH2 0x9F1 SWAP1 PUSH2 0x19C1 JUMP JUMPDEST PUSH1 0x40 MLOAD DUP1 SWAP2 SUB SWAP1 REVERT JUMPDEST PUSH1 0xD PUSH1 0x0 DUP4 DUP2 MSTORE PUSH1 0x20 ADD SWAP1 DUP2 MSTORE PUSH1 0x20 ADD PUSH1 0x0 KECCAK256 PUSH1 0x5 ADD SLOAD PUSH1 0xD PUSH1 0x0 DUP5 DUP2 MSTORE PUSH1 0x20 ADD SWAP1 DUP2 MSTORE PUSH1 0x20 ADD PUSH1 0x0 KECCAK256 PUSH1 0x4 ADD SLOAD PUSH2 0xA32 SWAP2 SWAP1 PUSH2 0x1C13 JUMP JUMPDEST SWAP1 POP SWAP2 SWAP1 POP JUMP JUMPDEST PUSH1 0x0 DUP1 DUP4 GT PUSH2 0xA7D JUMPI PUSH1 0x40 MLOAD PUSH32 0x8C379A000000000000000000000000000000000000000000000000000000000 DUP2 MSTORE PUSH1 0x4 ADD PUSH2 0xA74 SWAP1 PUSH2 0x19C1 JUMP JUMPDEST PUSH1 0x40 MLOAD DUP1 SWAP2 SUB SWAP1 REVERT JUMPDEST PUSH1 0xF PUSH1 0x0 DUP5 DUP2 MSTORE PUSH1 0x20 ADD SWAP1 DUP2 MSTORE PUSH1 0x20 ADD PUSH1 0x0 KECCAK256 PUSH1 0x0 DUP4 PUSH20 0xFFFFFFFFFFFFFFFFFFFFFFFFFFFFFFFFFFFFFFFF AND PUSH20 0xFFFFFFFFFFFFFFFFFFFFFFFFFFFFFFFFFFFFFFFF AND DUP2 MSTORE PUSH1 0x20 ADD SWAP1 DUP2 MSTORE PUSH1 0x20 ADD PUSH1 0x0 KECCAK256 PUSH1 0x2 ADD SLOAD SWAP1 POP SWAP3 SWAP2 POP POP JUMP JUMPDEST PUSH1 0x60 PUSH1 0xD PUSH1 0x0 DUP4 DUP2 MSTORE PUSH1 0x20 ADD SWAP1 DUP2 MSTORE PUSH1 0x20 ADD PUSH1 0x0 KECCAK256 PUSH1 0x7 ADD DUP1 SLOAD DUP1 PUSH1 0x20 MUL PUSH1 0x20 ADD PUSH1 0x40 MLOAD SWAP1 DUP2 ADD PUSH1 0x40 MSTORE DUP1 SWAP3 SWAP2 SWAP1 DUP2 DUP2 MSTORE PUSH1 0x20 ADD DUP3 DUP1 SLOAD DUP1 ISZERO PUSH2 0xB71 JUMPI PUSH1 0x20 MUL DUP3 ADD SWAP2 SWAP1 PUSH1 0x0 MSTORE PUSH1 0x20 PUSH1 0x0 KECCAK256 SWAP1 JUMPDEST DUP2 PUSH1 0x0 SWAP1 SLOAD SWAP1 PUSH2 0x100 EXP SWAP1 DIV PUSH20 0xFFFFFFFFFFFFFFFFFFFFFFFFFFFFFFFFFFFFFFFF AND PUSH20 0xFFFFFFFFFFFFFFFFFFFFFFFFFFFFFFFFFFFFFFFF AND DUP2 MSTORE PUSH1 0x20 ADD SWAP1 PUSH1 0x1 ADD SWAP1 DUP1 DUP4 GT PUSH2 0xB27 JUMPI JUMPDEST POP POP POP POP POP SWAP1 POP SWAP2 SWAP1 POP JUMP JUMPDEST PUSH2 0xB85 PUSH2 0x12F2 JUMP JUMPDEST PUSH1 0x0 DUP3 GT PUSH2 0xBC8 JUMPI PUSH1 0x40 MLOAD PUSH32 0x8C379A000000000000000000000000000000000000000000000000000000000 DUP2 MSTORE PUSH1 0x4 ADD PUSH2 0xBBF SWAP1 PUSH2 0x19C1 JUMP JUMPDEST PUSH1 0x40 MLOAD DUP1 SWAP2 SUB SWAP1 REVERT JUMPDEST PUSH1 0xD PUSH1 0x0 DUP4 DUP2 MSTORE PUSH1 0x20 ADD SWAP1 DUP2 MSTORE PUSH1 0x20 ADD PUSH1 0x0 KECCAK256 PUSH1 0x40 MLOAD DUP1 PUSH2 0x100 ADD PUSH1 0x40 MSTORE SWAP1 DUP2 PUSH1 0x0 DUP3 ADD DUP1 SLOAD PUSH2 0xBF7 SWAP1 PUSH2 0x1CC2 JUMP JUMPDEST DUP1 PUSH1 0x1F ADD PUSH1 0x20 DUP1 SWAP2 DIV MUL PUSH1 0x20 ADD PUSH1 0x40 MLOAD SWAP1 DUP2 ADD PUSH1 0x40 MSTORE DUP1 SWAP3 SWAP2 SWAP1 DUP2 DUP2 MSTORE PUSH1 0x20 ADD DUP3 DUP1 SLOAD PUSH2 0xC23 SWAP1 PUSH2 0x1CC2 JUMP JUMPDEST DUP1 ISZERO PUSH2 0xC70 JUMPI DUP1 PUSH1 0x1F LT PUSH2 0xC45 JUMPI PUSH2 0x100 DUP1 DUP4 SLOAD DIV MUL DUP4 MSTORE SWAP2 PUSH1 0x20 ADD SWAP2 PUSH2 0xC70 JUMP JUMPDEST DUP3 ADD SWAP2 SWAP1 PUSH1 0x0 MSTORE PUSH1 0x20 PUSH1 0x0 KECCAK256 SWAP1 JUMPDEST DUP2 SLOAD DUP2 MSTORE SWAP1 PUSH1 0x1 ADD SWAP1 PUSH1 0x20 ADD DUP1 DUP4 GT PUSH2 0xC53 JUMPI DUP3 SWAP1 SUB PUSH1 0x1F AND DUP3 ADD SWAP2 JUMPDEST POP POP POP POP POP DUP2 MSTORE PUSH1 0x20 ADD PUSH1 0x1 DUP3 ADD DUP1 SLOAD PUSH2 0xC89 SWAP1 PUSH2 0x1CC2 JUMP JUMPDEST DUP1 PUSH1 0x1F ADD PUSH1 0x20 DUP1 SWAP2 DIV MUL PUSH1 0x20 ADD PUSH1 0x40 MLOAD SWAP1 DUP2 ADD PUSH1 0x40 MSTORE DUP1 SWAP3 SWAP2 SWAP1 DUP2 DUP2 MSTORE PUSH1 0x20 ADD DUP3 DUP1 SLOAD PUSH2 0xCB5 SWAP1 PUSH2 0x1CC2 JUMP JUMPDEST DUP1 ISZERO PUSH2 0xD02 JUMPI DUP1 PUSH1 0x1F LT PUSH2 0xCD7 JUMPI PUSH2 0x100 DUP1 DUP4 SLOAD DIV MUL DUP4 MSTORE SWAP2 PUSH1 0x20 ADD SWAP2 PUSH2 0xD02 JUMP JUMPDEST DUP3 ADD SWAP2 SWAP1 PUSH1 0x0 MSTORE PUSH1 0x20 PUSH1 0x0 KECCAK256 SWAP1 JUMPDEST DUP2 SLOAD DUP2 MSTORE SWAP1 PUSH1 0x1 ADD SWAP1 PUSH1 0x20 ADD DUP1 DUP4 GT PUSH2 0xCE5 JUMPI DUP3 SWAP1 SUB PUSH1 0x1F AND DUP3 ADD SWAP2 JUMPDEST POP POP POP POP POP DUP2 MSTORE PUSH1 0x20 ADD PUSH1 0x2 DUP3 ADD SLOAD DUP2 MSTORE PUSH1 0x20 ADD PUSH1 0x3 DUP3 ADD DUP1 SLOAD PUSH2 0xD25 SWAP1 PUSH2 0x1CC2 JUMP JUMPDEST DUP1 PUSH1 0x1F ADD PUSH1 0x20 DUP1 SWAP2 DIV MUL PUSH1 0x20 ADD PUSH1 0x40 MLOAD SWAP1 DUP2 ADD PUSH1 0x40 MSTORE DUP1 SWAP3 SWAP2 SWAP1 DUP2 DUP2 MSTORE PUSH1 0x20 ADD DUP3 DUP1 SLOAD PUSH2 0xD51 SWAP1 PUSH2 0x1CC2 JUMP JUMPDEST DUP1 ISZERO PUSH2 0xD9E JUMPI DUP1 PUSH1 0x1F LT PUSH2 0xD73 JUMPI PUSH2 0x100 DUP1 DUP4 SLOAD DIV MUL DUP4 MSTORE SWAP2 PUSH1 0x20 ADD SWAP2 PUSH2 0xD9E JUMP JUMPDEST DUP3 ADD SWAP2 SWAP1 PUSH1 0x0 MSTORE PUSH1 0x20 PUSH1 0x0 KECCAK256 SWAP1 JUMPDEST DUP2 SLOAD DUP2 MSTORE SWAP1 PUSH1 0x1 ADD SWAP1 PUSH1 0x20 ADD DUP1 DUP4 GT PUSH2 0xD81 JUMPI DUP3 SWAP1 SUB PUSH1 0x1F AND DUP3 ADD SWAP2 JUMPDEST POP POP POP POP POP DUP2 MSTORE PUSH1 0x20 ADD PUSH1 0x4 DUP3 ADD SLOAD DUP2 MSTORE PUSH1 0x20 ADD PUSH1 0x5 DUP3 ADD SLOAD DUP2 MSTORE PUSH1 0x20 ADD PUSH1 0x6 DUP3 ADD PUSH1 0x0 SWAP1 SLOAD SWAP1 PUSH2 0x100 EXP SWAP1 DIV PUSH20 0xFFFFFFFFFFFFFFFFFFFFFFFFFFFFFFFFFFFFFFFF AND PUSH20 0xFFFFFFFFFFFFFFFFFFFFFFFFFFFFFFFFFFFFFFFF AND PUSH20 0xFFFFFFFFFFFFFFFFFFFFFFFFFFFFFFFFFFFFFFFF AND DUP2 MSTORE PUSH1 0x20 ADD PUSH1 0x7 DUP3 ADD DUP1 SLOAD DUP1 PUSH1 0x20 MUL PUSH1 0x20 ADD PUSH1 0x40 MLOAD SWAP1 DUP2 ADD PUSH1 0x40 MSTORE DUP1 SWAP3 SWAP2 SWAP1 DUP2 DUP2 MSTORE PUSH1 0x20 ADD DUP3 DUP1 SLOAD DUP1 ISZERO PUSH2 0xE96 JUMPI PUSH1 0x20 MUL DUP3 ADD SWAP2 SWAP1 PUSH1 0x0 MSTORE PUSH1 0x20 PUSH1 0x0 KECCAK256 SWAP1 JUMPDEST DUP2 PUSH1 0x0 SWAP1 SLOAD SWAP1 PUSH2 0x100 EXP SWAP1 DIV PUSH20 0xFFFFFFFFFFFFFFFFFFFFFFFFFFFFFFFFFFFFFFFF AND PUSH20 0xFFFFFFFFFFFFFFFFFFFFFFFFFFFFFFFFFFFFFFFF AND DUP2 MSTORE PUSH1 0x20 ADD SWAP1 PUSH1 0x1 ADD SWAP1 DUP1 DUP4 GT PUSH2 0xE4C JUMPI JUMPDEST POP POP POP POP POP DUP2 MSTORE POP POP SWAP1 POP SWAP2 SWAP1 POP JUMP JUMPDEST PUSH1 0xE DUP2 DUP2 SLOAD DUP2 LT PUSH2 0xEB6 JUMPI PUSH1 0x0 DUP1 REVERT JUMPDEST SWAP1 PUSH1 0x0 MSTORE PUSH1 0x20 PUSH1 0x0 KECCAK256 ADD PUSH1 0x0 SWAP2 POP SWAP1 POP SLOAD DUP2 JUMP JUMPDEST PUSH1 0xC SLOAD DUP2 JUMP JUMPDEST PUSH1 0x60 PUSH1 0xE DUP1 SLOAD DUP1 PUSH1 0x20 MUL PUSH1 0x20 ADD PUSH1 0x40 MLOAD SWAP1 DUP2 ADD PUSH1 0x40 MSTORE DUP1 SWAP3 SWAP2 SWAP1 DUP2 DUP2 MSTORE PUSH1 0x20 ADD DUP3 DUP1 SLOAD DUP1 ISZERO PUSH2 0xF1E JUMPI PUSH1 0x20 MUL DUP3 ADD SWAP2 SWAP1 PUSH1 0x0 MSTORE PUSH1 0x20 PUSH1 0x0 KECCAK256 SWAP1 JUMPDEST DUP2 SLOAD DUP2 MSTORE PUSH1 0x20 ADD SWAP1 PUSH1 0x1 ADD SWAP1 DUP1 DUP4 GT PUSH2 0xF0A JUMPI JUMPDEST POP POP POP POP POP SWAP1 POP SWAP1 JUMP JUMPDEST PUSH32 0xC5D2460186F7233C927E7DB2DCC703C0E500B653CA82273B7BFAD8045D85A470 DUP5 DUP1 MLOAD SWAP1 PUSH1 0x20 ADD KECCAK256 EQ ISZERO PUSH2 0xF92 JUMPI PUSH1 0x40 MLOAD PUSH32 0x8C379A000000000000000000000000000000000000000000000000000000000 DUP2 MSTORE PUSH1 0x4 ADD PUSH2 0xF89 SWAP1 PUSH2 0x1A01 JUMP JUMPDEST PUSH1 0x40 MLOAD DUP1 SWAP2 SUB SWAP1 REVERT JUMPDEST PUSH1 0xC PUSH1 0x0 DUP2 SLOAD DUP1 SWAP3 SWAP2 SWAP1 PUSH2 0xFA5 SWAP1 PUSH2 0x1D25 JUMP JUMPDEST SWAP2 SWAP1 POP SSTORE POP PUSH1 0x0 PUSH1 0xC SLOAD SWAP1 POP DUP5 PUSH1 0x0 DUP1 ADD SWAP1 DUP1 MLOAD SWAP1 PUSH1 0x20 ADD SWAP1 PUSH2 0xFC9 SWAP3 SWAP2 SWAP1 PUSH2 0x11DF JUMP JUMPDEST POP DUP4 PUSH1 0x0 PUSH1 0x1 ADD SWAP1 DUP1 MLOAD SWAP1 PUSH1 0x20 ADD SWAP1 PUSH2 0xFE3 SWAP3 SWAP2 SWAP1 PUSH2 0x11DF JUMP JUMPDEST POP DUP3 PUSH1 0x0 PUSH1 0x2 ADD DUP2 SWAP1 SSTORE POP DUP2 PUSH1 0x0 PUSH1 0x3 ADD SWAP1 DUP1 MLOAD SWAP1 PUSH1 0x20 ADD SWAP1 PUSH2 0x1007 SWAP3 SWAP2 SWAP1 PUSH2 0x11DF JUMP JUMPDEST POP PUSH1 0x0 DUP1 PUSH1 0x4 ADD DUP2 SWAP1 SSTORE POP PUSH1 0x0 DUP1 PUSH1 0x5 ADD DUP2 SWAP1 SSTORE POP CALLER PUSH1 0x0 PUSH1 0x6 ADD PUSH1 0x0 PUSH2 0x100 EXP DUP2 SLOAD DUP2 PUSH20 0xFFFFFFFFFFFFFFFFFFFFFFFFFFFFFFFFFFFFFFFF MUL NOT AND SWAP1 DUP4 PUSH20 0xFFFFFFFFFFFFFFFFFFFFFFFFFFFFFFFFFFFFFFFF AND MUL OR SWAP1 SSTORE POP PUSH1 0xE DUP2 SWAP1 DUP1 PUSH1 0x1 DUP2 SLOAD ADD DUP1 DUP3 SSTORE DUP1 SWAP2 POP POP PUSH1 0x1 SWAP1 SUB SWAP1 PUSH1 0x0 MSTORE PUSH1 0x20 PUSH1 0x0 KECCAK256 ADD PUSH1 0x0 SWAP1 SWAP2 SWAP1 SWAP2 SWAP1 SWAP2 POP SSTORE PUSH1 0x0 PUSH1 0xD PUSH1 0x0 DUP4 DUP2 MSTORE PUSH1 0x20 ADD SWAP1 DUP2 MSTORE PUSH1 0x20 ADD PUSH1 0x0 KECCAK256 PUSH1 0x0 DUP3 ADD DUP2 PUSH1 0x0 ADD SWAP1 DUP1 SLOAD PUSH2 0x10B2 SWAP1 PUSH2 0x1CC2 JUMP JUMPDEST PUSH2 0x10BD SWAP3 SWAP2 SWAP1 PUSH2 0x1265 JUMP JUMPDEST POP PUSH1 0x1 DUP3 ADD DUP2 PUSH1 0x1 ADD SWAP1 DUP1 SLOAD PUSH2 0x10D2 SWAP1 PUSH2 0x1CC2 JUMP JUMPDEST PUSH2 0x10DD SWAP3 SWAP2 SWAP1 PUSH2 0x1265 JUMP JUMPDEST POP PUSH1 0x2 DUP3 ADD SLOAD DUP2 PUSH1 0x2 ADD SSTORE PUSH1 0x3 DUP3 ADD DUP2 PUSH1 0x3 ADD SWAP1 DUP1 SLOAD PUSH2 0x10FC SWAP1 PUSH2 0x1CC2 JUMP JUMPDEST PUSH2 0x1107 SWAP3 SWAP2 SWAP1 PUSH2 0x1265 JUMP JUMPDEST POP PUSH1 0x4 DUP3 ADD SLOAD DUP2 PUSH1 0x4 ADD SSTORE PUSH1 0x5 DUP3 ADD SLOAD DUP2 PUSH1 0x5 ADD SSTORE PUSH1 0x6 DUP3 ADD PUSH1 0x0 SWAP1 SLOAD SWAP1 PUSH2 0x100 EXP SWAP1 DIV PUSH20 0xFFFFFFFFFFFFFFFFFFFFFFFFFFFFFFFFFFFFFFFF AND DUP2 PUSH1 0x6 ADD PUSH1 0x0 PUSH2 0x100 EXP DUP2 SLOAD DUP2 PUSH20 0xFFFFFFFFFFFFFFFFFFFFFFFFFFFFFFFFFFFFFFFF MUL NOT AND SWAP1 DUP4 PUSH20 0xFFFFFFFFFFFFFFFFFFFFFFFFFFFFFFFFFFFFFFFF AND MUL OR SWAP1 SSTORE POP PUSH1 0x7 DUP3 ADD DUP2 PUSH1 0x7 ADD SWAP1 DUP1 SLOAD PUSH2 0x1199 SWAP3 SWAP2 SWAP1 PUSH2 0x134D JUMP JUMPDEST POP SWAP1 POP POP PUSH32 0x3CED9A5CF8ED92AA569E06433F3D00B956864371C05F133E766FDEE3CDFB529E PUSH1 0xC SLOAD DUP7 PUSH1 0x40 MLOAD PUSH2 0x11D0 SWAP3 SWAP2 SWAP1 PUSH2 0x1A5E JUMP JUMPDEST PUSH1 0x40 MLOAD DUP1 SWAP2 SUB SWAP1 LOG1 POP POP POP POP POP JUMP JUMPDEST DUP3 DUP1 SLOAD PUSH2 0x11EB SWAP1 PUSH2 0x1CC2 JUMP JUMPDEST SWAP1 PUSH1 0x0 MSTORE PUSH1 0x20 PUSH1 0x0 KECCAK256 SWAP1 PUSH1 0x1F ADD PUSH1 0x20 SWAP1 DIV DUP2 ADD SWAP3 DUP3 PUSH2 0x120D JUMPI PUSH1 0x0 DUP6 SSTORE PUSH2 0x1254 JUMP JUMPDEST DUP3 PUSH1 0x1F LT PUSH2 0x1226 JUMPI DUP1 MLOAD PUSH1 0xFF NOT AND DUP4 DUP1 ADD OR DUP6 SSTORE PUSH2 0x1254 JUMP JUMPDEST DUP3 DUP1 ADD PUSH1 0x1 ADD DUP6 SSTORE DUP3 ISZERO PUSH2 0x1254 JUMPI SWAP2 DUP3 ADD JUMPDEST DUP3 DUP2 GT ISZERO PUSH2 0x1253 JUMPI DUP3 MLOAD DUP3 SSTORE SWAP2 PUSH1 0x20 ADD SWAP2 SWAP1 PUSH1 0x1 ADD SWAP1 PUSH2 0x1238 JUMP JUMPDEST JUMPDEST POP SWAP1 POP PUSH2 0x1261 SWAP2 SWAP1 PUSH2 0x139F JUMP JUMPDEST POP SWAP1 JUMP JUMPDEST DUP3 DUP1 SLOAD PUSH2 0x1271 SWAP1 PUSH2 0x1CC2 JUMP JUMPDEST SWAP1 PUSH1 0x0 MSTORE PUSH1 0x20 PUSH1 0x0 KECCAK256 SWAP1 PUSH1 0x1F ADD PUSH1 0x20 SWAP1 DIV DUP2 ADD SWAP3 DUP3 PUSH2 0x1293 JUMPI PUSH1 0x0 DUP6 SSTORE PUSH2 0x12E1 JUMP JUMPDEST DUP3 PUSH1 0x1F LT PUSH2 0x12A4 JUMPI DUP1 SLOAD DUP6 SSTORE PUSH2 0x12E1 JUMP JUMPDEST DUP3 DUP1 ADD PUSH1 0x1 ADD DUP6 SSTORE DUP3 ISZERO PUSH2 0x12E1 JUMPI PUSH1 0x0 MSTORE PUSH1 0x20 PUSH1 0x0 KECCAK256 SWAP2 PUSH1 0x1F ADD PUSH1 0x20 SWAP1 DIV DUP3 ADD JUMPDEST DUP3 DUP2 GT ISZERO PUSH2 0x12E0 JUMPI DUP3 SLOAD DUP3 SSTORE SWAP2 PUSH1 0x1 ADD SWAP2 SWAP1 PUSH1 0x1 ADD SWAP1 PUSH2 0x12C5 JUMP JUMPDEST JUMPDEST POP SWAP1 POP PUSH2 0x12EE SWAP2 SWAP1 PUSH2 0x139F JUMP JUMPDEST POP SWAP1 JUMP JUMPDEST PUSH1 0x40 MLOAD DUP1 PUSH2 0x100 ADD PUSH1 0x40 MSTORE DUP1 PUSH1 0x60 DUP2 MSTORE PUSH1 0x20 ADD PUSH1 0x60 DUP2 MSTORE PUSH1 0x20 ADD PUSH1 0x0 DUP2 MSTORE PUSH1 0x20 ADD PUSH1 0x60 DUP2 MSTORE PUSH1 0x20 ADD PUSH1 0x0 DUP2 MSTORE PUSH1 0x20 ADD PUSH1 0x0 DUP2 MSTORE PUSH1 0x20 ADD PUSH1 0x0 PUSH20 0xFFFFFFFFFFFFFFFFFFFFFFFFFFFFFFFFFFFFFFFF AND DUP2 MSTORE PUSH1 0x20 ADD PUSH1 0x60 DUP2 MSTORE POP SWAP1 JUMP JUMPDEST DUP3 DUP1 SLOAD DUP3 DUP3 SSTORE SWAP1 PUSH1 0x0 MSTORE PUSH1 0x20 PUSH1 0x0 KECCAK256 SWAP1 DUP2 ADD SWAP3 DUP3 ISZERO PUSH2 0x138E JUMPI PUSH1 0x0 MSTORE PUSH1 0x20 PUSH1 0x0 KECCAK256 SWAP2 DUP3 ADD JUMPDEST DUP3 DUP2 GT ISZERO PUSH2 0x138D JUMPI DUP3 SLOAD DUP3 SSTORE SWAP2 PUSH1 0x1 ADD SWAP2 SWAP1 PUSH1 0x1 ADD SWAP1 PUSH2 0x1372 JUMP JUMPDEST JUMPDEST POP SWAP1 POP PUSH2 0x139B SWAP2 SWAP1 PUSH2 0x139F JUMP JUMPDEST POP SWAP1 JUMP JUMPDEST JUMPDEST DUP1 DUP3 GT ISZERO PUSH2 0x13B8 JUMPI PUSH1 0x0 DUP2 PUSH1 0x0 SWAP1 SSTORE POP PUSH1 0x1 ADD PUSH2 0x13A0 JUMP JUMPDEST POP SWAP1 JUMP JUMPDEST PUSH1 0x0 PUSH2 0x13CF PUSH2 0x13CA DUP5 PUSH2 0x1ADC JUMP JUMPDEST PUSH2 0x1AB7 JUMP JUMPDEST SWAP1 POP DUP3 DUP2 MSTORE PUSH1 0x20 DUP2 ADD DUP5 DUP5 DUP5 ADD GT ISZERO PUSH2 0x13EB JUMPI PUSH2 0x13EA PUSH2 0x1E2F JUMP JUMPDEST JUMPDEST PUSH2 0x13F6 DUP5 DUP3 DUP6 PUSH2 0x1C80 JUMP JUMPDEST POP SWAP4 SWAP3 POP POP POP JUMP JUMPDEST PUSH1 0x0 DUP2 CALLDATALOAD SWAP1 POP PUSH2 0x140D DUP2 PUSH2 0x1F3F JUMP JUMPDEST SWAP3 SWAP2 POP POP JUMP JUMPDEST PUSH1 0x0 DUP3 PUSH1 0x1F DUP4 ADD SLT PUSH2 0x1428 JUMPI PUSH2 0x1427 PUSH2 0x1E2A JUMP JUMPDEST JUMPDEST DUP2 CALLDATALOAD PUSH2 0x1438 DUP5 DUP3 PUSH1 0x20 DUP7 ADD PUSH2 0x13BC JUMP JUMPDEST SWAP2 POP POP SWAP3 SWAP2 POP POP JUMP JUMPDEST PUSH1 0x0 DUP2 CALLDATALOAD SWAP1 POP PUSH2 0x1450 DUP2 PUSH2 0x1F56 JUMP JUMPDEST SWAP3 SWAP2 POP POP JUMP JUMPDEST PUSH1 0x0 DUP1 PUSH1 0x0 DUP1 PUSH1 0x80 DUP6 DUP8 SUB SLT ISZERO PUSH2 0x1470 JUMPI PUSH2 0x146F PUSH2 0x1E39 JUMP JUMPDEST JUMPDEST PUSH1 0x0 DUP6 ADD CALLDATALOAD PUSH8 0xFFFFFFFFFFFFFFFF DUP2 GT ISZERO PUSH2 0x148E JUMPI PUSH2 0x148D PUSH2 0x1E34 JUMP JUMPDEST JUMPDEST PUSH2 0x149A DUP8 DUP3 DUP9 ADD PUSH2 0x1413 JUMP JUMPDEST SWAP5 POP POP PUSH1 0x20 DUP6 ADD CALLDATALOAD PUSH8 0xFFFFFFFFFFFFFFFF DUP2 GT ISZERO PUSH2 0x14BB JUMPI PUSH2 0x14BA PUSH2 0x1E34 JUMP JUMPDEST JUMPDEST PUSH2 0x14C7 DUP8 DUP3 DUP9 ADD PUSH2 0x1413 JUMP JUMPDEST SWAP4 POP POP PUSH1 0x40 PUSH2 0x14D8 DUP8 DUP3 DUP9 ADD PUSH2 0x1441 JUMP JUMPDEST SWAP3 POP POP PUSH1 0x60 DUP6 ADD CALLDATALOAD PUSH8 0xFFFFFFFFFFFFFFFF DUP2 GT ISZERO PUSH2 0x14F9 JUMPI PUSH2 0x14F8 PUSH2 0x1E34 JUMP JUMPDEST JUMPDEST PUSH2 0x1505 DUP8 DUP3 DUP9 ADD PUSH2 0x1413 JUMP JUMPDEST SWAP2 POP POP SWAP3 SWAP6 SWAP2 SWAP5 POP SWAP3 POP JUMP JUMPDEST PUSH1 0x0 PUSH1 0x20 DUP3 DUP5 SUB SLT ISZERO PUSH2 0x1527 JUMPI PUSH2 0x1526 PUSH2 0x1E39 JUMP JUMPDEST JUMPDEST PUSH1 0x0 PUSH2 0x1535 DUP5 DUP3 DUP6 ADD PUSH2 0x1441 JUMP JUMPDEST SWAP2 POP POP SWAP3 SWAP2 POP POP JUMP JUMPDEST PUSH1 0x0 DUP1 PUSH1 0x40 DUP4 DUP6 SUB SLT ISZERO PUSH2 0x1555 JUMPI PUSH2 0x1554 PUSH2 0x1E39 JUMP JUMPDEST JUMPDEST PUSH1 0x0 PUSH2 0x1563 DUP6 DUP3 DUP7 ADD PUSH2 0x1441 JUMP JUMPDEST SWAP3 POP POP PUSH1 0x20 PUSH2 0x1574 DUP6 DUP3 DUP7 ADD PUSH2 0x13FE JUMP JUMPDEST SWAP2 POP POP SWAP3 POP SWAP3 SWAP1 POP JUMP JUMPDEST PUSH1 0x0 DUP1 PUSH1 0x0 DUP1 PUSH1 0x80 DUP6 DUP8 SUB SLT ISZERO PUSH2 0x1598 JUMPI PUSH2 0x1597 PUSH2 0x1E39 JUMP JUMPDEST JUMPDEST PUSH1 0x0 PUSH2 0x15A6 DUP8 DUP3 DUP9 ADD PUSH2 0x1441 JUMP JUMPDEST SWAP5 POP POP PUSH1 0x20 PUSH2 0x15B7 DUP8 DUP3 DUP9 ADD PUSH2 0x1441 JUMP JUMPDEST SWAP4 POP POP PUSH1 0x40 DUP6 ADD CALLDATALOAD PUSH8 0xFFFFFFFFFFFFFFFF DUP2 GT ISZERO PUSH2 0x15D8 JUMPI PUSH2 0x15D7 PUSH2 0x1E34 JUMP JUMPDEST JUMPDEST PUSH2 0x15E4 DUP8 DUP3 DUP9 ADD PUSH2 0x1413 JUMP JUMPDEST SWAP3 POP POP PUSH1 0x60 PUSH2 0x15F5 DUP8 DUP3 DUP9 ADD PUSH2 0x1441 JUMP JUMPDEST SWAP2 POP POP SWAP3 SWAP6 SWAP2 SWAP5 POP SWAP3 POP JUMP JUMPDEST PUSH1 0x0 PUSH2 0x160D DUP4 DUP4 PUSH2 0x1631 JUMP JUMPDEST PUSH1 0x20 DUP4 ADD SWAP1 POP SWAP3 SWAP2 POP POP JUMP JUMPDEST PUSH1 0x0 PUSH2 0x1625 DUP4 DUP4 PUSH2 0x191D JUMP JUMPDEST PUSH1 0x20 DUP4 ADD SWAP1 POP SWAP3 SWAP2 POP POP JUMP JUMPDEST PUSH2 0x163A DUP2 PUSH2 0x1C44 JUMP JUMPDEST DUP3 MSTORE POP POP JUMP JUMPDEST PUSH1 0x0 PUSH2 0x164B DUP3 PUSH2 0x1B2D JUMP JUMPDEST PUSH2 0x1655 DUP2 DUP6 PUSH2 0x1B68 JUMP JUMPDEST SWAP4 POP PUSH2 0x1660 DUP4 PUSH2 0x1B0D JUMP JUMPDEST DUP1 PUSH1 0x0 JUMPDEST DUP4 DUP2 LT ISZERO PUSH2 0x1691 JUMPI DUP2 MLOAD PUSH2 0x1678 DUP9 DUP3 PUSH2 0x1601 JUMP JUMPDEST SWAP8 POP PUSH2 0x1683 DUP4 PUSH2 0x1B4E JUMP JUMPDEST SWAP3 POP POP PUSH1 0x1 DUP2 ADD SWAP1 POP PUSH2 0x1664 JUMP JUMPDEST POP DUP6 SWAP4 POP POP POP POP SWAP3 SWAP2 POP POP JUMP JUMPDEST PUSH1 0x0 PUSH2 0x16A9 DUP3 PUSH2 0x1B2D JUMP JUMPDEST PUSH2 0x16B3 DUP2 DUP6 PUSH2 0x1B79 JUMP JUMPDEST SWAP4 POP PUSH2 0x16BE DUP4 PUSH2 0x1B0D JUMP JUMPDEST DUP1 PUSH1 0x0 JUMPDEST DUP4 DUP2 LT ISZERO PUSH2 0x16EF JUMPI DUP2 MLOAD PUSH2 0x16D6 DUP9 DUP3 PUSH2 0x1601 JUMP JUMPDEST SWAP8 POP PUSH2 0x16E1 DUP4 PUSH2 0x1B4E JUMP JUMPDEST SWAP3 POP POP PUSH1 0x1 DUP2 ADD SWAP1 POP PUSH2 0x16C2 JUMP JUMPDEST POP DUP6 SWAP4 POP POP POP POP SWAP3 SWAP2 POP POP JUMP JUMPDEST PUSH1 0x0 PUSH2 0x1707 DUP3 PUSH2 0x1B38 JUMP JUMPDEST PUSH2 0x1711 DUP2 DUP6 PUSH2 0x1B8A JUMP JUMPDEST SWAP4 POP PUSH2 0x171C DUP4 PUSH2 0x1B1D JUMP JUMPDEST DUP1 PUSH1 0x0 JUMPDEST DUP4 DUP2 LT ISZERO PUSH2 0x174D JUMPI DUP2 MLOAD PUSH2 0x1734 DUP9 DUP3 PUSH2 0x1619 JUMP JUMPDEST SWAP8 POP PUSH2 0x173F DUP4 PUSH2 0x1B5B JUMP JUMPDEST SWAP3 POP POP PUSH1 0x1 DUP2 ADD SWAP1 POP PUSH2 0x1720 JUMP JUMPDEST POP DUP6 SWAP4 POP POP POP POP SWAP3 SWAP2 POP POP JUMP JUMPDEST PUSH1 0x0 PUSH2 0x1765 DUP3 PUSH2 0x1B43 JUMP JUMPDEST PUSH2 0x176F DUP2 DUP6 PUSH2 0x1B9B JUMP JUMPDEST SWAP4 POP PUSH2 0x177F DUP2 DUP6 PUSH1 0x20 DUP7 ADD PUSH2 0x1C8F JUMP JUMPDEST PUSH2 0x1788 DUP2 PUSH2 0x1E3E JUMP JUMPDEST DUP5 ADD SWAP2 POP POP SWAP3 SWAP2 POP POP JUMP JUMPDEST PUSH1 0x0 PUSH2 0x179E DUP3 PUSH2 0x1B43 JUMP JUMPDEST PUSH2 0x17A8 DUP2 DUP6 PUSH2 0x1BAC JUMP JUMPDEST SWAP4 POP PUSH2 0x17B8 DUP2 DUP6 PUSH1 0x20 DUP7 ADD PUSH2 0x1C8F JUMP JUMPDEST PUSH2 0x17C1 DUP2 PUSH2 0x1E3E JUMP JUMPDEST DUP5 ADD SWAP2 POP POP SWAP3 SWAP2 POP POP JUMP JUMPDEST PUSH1 0x0 PUSH2 0x17D9 PUSH1 0x27 DUP4 PUSH2 0x1BAC JUMP JUMPDEST SWAP2 POP PUSH2 0x17E4 DUP3 PUSH2 0x1E4F JUMP JUMPDEST PUSH1 0x40 DUP3 ADD SWAP1 POP SWAP2 SWAP1 POP JUMP JUMPDEST PUSH1 0x0 PUSH2 0x17FC PUSH1 0x14 DUP4 PUSH2 0x1BAC JUMP JUMPDEST SWAP2 POP PUSH2 0x1807 DUP3 PUSH2 0x1E9E JUMP JUMPDEST PUSH1 0x20 DUP3 ADD SWAP1 POP SWAP2 SWAP1 POP JUMP JUMPDEST PUSH1 0x0 PUSH2 0x181F PUSH1 0x22 DUP4 PUSH2 0x1BAC JUMP JUMPDEST SWAP2 POP PUSH2 0x182A DUP3 PUSH2 0x1EC7 JUMP JUMPDEST PUSH1 0x40 DUP3 ADD SWAP1 POP SWAP2 SWAP1 POP JUMP JUMPDEST PUSH1 0x0 PUSH2 0x1842 PUSH1 0x17 DUP4 PUSH2 0x1BAC JUMP JUMPDEST SWAP2 POP PUSH2 0x184D DUP3 PUSH2 0x1F16 JUMP JUMPDEST PUSH1 0x20 DUP3 ADD SWAP1 POP SWAP2 SWAP1 POP JUMP JUMPDEST PUSH1 0x0 PUSH2 0x100 DUP4 ADD PUSH1 0x0 DUP4 ADD MLOAD DUP5 DUP3 SUB PUSH1 0x0 DUP7 ADD MSTORE PUSH2 0x1876 DUP3 DUP3 PUSH2 0x175A JUMP JUMPDEST SWAP2 POP POP PUSH1 0x20 DUP4 ADD MLOAD DUP5 DUP3 SUB PUSH1 0x20 DUP7 ADD MSTORE PUSH2 0x1890 DUP3 DUP3 PUSH2 0x175A JUMP JUMPDEST SWAP2 POP POP PUSH1 0x40 DUP4 ADD MLOAD PUSH2 0x18A5 PUSH1 0x40 DUP7 ADD DUP3 PUSH2 0x191D JUMP JUMPDEST POP PUSH1 0x60 DUP4 ADD MLOAD DUP5 DUP3 SUB PUSH1 0x60 DUP7 ADD MSTORE PUSH2 0x18BD DUP3 DUP3 PUSH2 0x175A JUMP JUMPDEST SWAP2 POP POP PUSH1 0x80 DUP4 ADD MLOAD PUSH2 0x18D2 PUSH1 0x80 DUP7 ADD DUP3 PUSH2 0x191D JUMP JUMPDEST POP PUSH1 0xA0 DUP4 ADD MLOAD PUSH2 0x18E5 PUSH1 0xA0 DUP7 ADD DUP3 PUSH2 0x191D JUMP JUMPDEST POP PUSH1 0xC0 DUP4 ADD MLOAD PUSH2 0x18F8 PUSH1 0xC0 DUP7 ADD DUP3 PUSH2 0x1631 JUMP JUMPDEST POP PUSH1 0xE0 DUP4 ADD MLOAD DUP5 DUP3 SUB PUSH1 0xE0 DUP7 ADD MSTORE PUSH2 0x1910 DUP3 DUP3 PUSH2 0x1640 JUMP JUMPDEST SWAP2 POP POP DUP1 SWAP2 POP POP SWAP3 SWAP2 POP POP JUMP JUMPDEST PUSH2 0x1926 DUP2 PUSH2 0x1C76 JUMP JUMPDEST DUP3 MSTORE POP POP JUMP JUMPDEST PUSH2 0x1935 DUP2 PUSH2 0x1C76 JUMP JUMPDEST DUP3 MSTORE POP POP JUMP JUMPDEST PUSH1 0x0 PUSH1 0x20 DUP3 ADD SWAP1 POP DUP2 DUP2 SUB PUSH1 0x0 DUP4 ADD MSTORE PUSH2 0x1955 DUP2 DUP5 PUSH2 0x169E JUMP JUMPDEST SWAP1 POP SWAP3 SWAP2 POP POP JUMP JUMPDEST PUSH1 0x0 PUSH1 0x20 DUP3 ADD SWAP1 POP DUP2 DUP2 SUB PUSH1 0x0 DUP4 ADD MSTORE PUSH2 0x1977 DUP2 DUP5 PUSH2 0x16FC JUMP JUMPDEST SWAP1 POP SWAP3 SWAP2 POP POP JUMP JUMPDEST PUSH1 0x0 PUSH1 0x20 DUP3 ADD SWAP1 POP DUP2 DUP2 SUB PUSH1 0x0 DUP4 ADD MSTORE PUSH2 0x1999 DUP2 DUP5 PUSH2 0x1793 JUMP JUMPDEST SWAP1 POP SWAP3 SWAP2 POP POP JUMP JUMPDEST PUSH1 0x0 PUSH1 0x20 DUP3 ADD SWAP1 POP DUP2 DUP2 SUB PUSH1 0x0 DUP4 ADD MSTORE PUSH2 0x19BA DUP2 PUSH2 0x17CC JUMP JUMPDEST SWAP1 POP SWAP2 SWAP1 POP JUMP JUMPDEST PUSH1 0x0 PUSH1 0x20 DUP3 ADD SWAP1 POP DUP2 DUP2 SUB PUSH1 0x0 DUP4 ADD MSTORE PUSH2 0x19DA DUP2 PUSH2 0x17EF JUMP JUMPDEST SWAP1 POP SWAP2 SWAP1 POP JUMP JUMPDEST PUSH1 0x0 PUSH1 0x20 DUP3 ADD SWAP1 POP DUP2 DUP2 SUB PUSH1 0x0 DUP4 ADD MSTORE PUSH2 0x19FA DUP2 PUSH2 0x1812 JUMP JUMPDEST SWAP1 POP SWAP2 SWAP1 POP JUMP JUMPDEST PUSH1 0x0 PUSH1 0x20 DUP3 ADD SWAP1 POP DUP2 DUP2 SUB PUSH1 0x0 DUP4 ADD MSTORE PUSH2 0x1A1A DUP2 PUSH2 0x1835 JUMP JUMPDEST SWAP1 POP SWAP2 SWAP1 POP JUMP JUMPDEST PUSH1 0x0 PUSH1 0x20 DUP3 ADD SWAP1 POP DUP2 DUP2 SUB PUSH1 0x0 DUP4 ADD MSTORE PUSH2 0x1A3B DUP2 DUP5 PUSH2 0x1858 JUMP JUMPDEST SWAP1 POP SWAP3 SWAP2 POP POP JUMP JUMPDEST PUSH1 0x0 PUSH1 0x20 DUP3 ADD SWAP1 POP PUSH2 0x1A58 PUSH1 0x0 DUP4 ADD DUP5 PUSH2 0x192C JUMP JUMPDEST SWAP3 SWAP2 POP POP JUMP JUMPDEST PUSH1 0x0 PUSH1 0x40 DUP3 ADD SWAP1 POP PUSH2 0x1A73 PUSH1 0x0 DUP4 ADD DUP6 PUSH2 0x192C JUMP JUMPDEST DUP2 DUP2 SUB PUSH1 0x20 DUP4 ADD MSTORE PUSH2 0x1A85 DUP2 DUP5 PUSH2 0x1793 JUMP JUMPDEST SWAP1 POP SWAP4 SWAP3 POP POP POP JUMP JUMPDEST PUSH1 0x0 PUSH1 0x40 DUP3 ADD SWAP1 POP PUSH2 0x1AA3 PUSH1 0x0 DUP4 ADD DUP6 PUSH2 0x192C JUMP JUMPDEST PUSH2 0x1AB0 PUSH1 0x20 DUP4 ADD DUP5 PUSH2 0x192C JUMP JUMPDEST SWAP4 SWAP3 POP POP POP JUMP JUMPDEST PUSH1 0x0 PUSH2 0x1AC1 PUSH2 0x1AD2 JUMP JUMPDEST SWAP1 POP PUSH2 0x1ACD DUP3 DUP3 PUSH2 0x1CF4 JUMP JUMPDEST SWAP2 SWAP1 POP JUMP JUMPDEST PUSH1 0x0 PUSH1 0x40 MLOAD SWAP1 POP SWAP1 JUMP JUMPDEST PUSH1 0x0 PUSH8 0xFFFFFFFFFFFFFFFF DUP3 GT ISZERO PUSH2 0x1AF7 JUMPI PUSH2 0x1AF6 PUSH2 0x1DFB JUMP JUMPDEST JUMPDEST PUSH2 0x1B00 DUP3 PUSH2 0x1E3E JUMP JUMPDEST SWAP1 POP PUSH1 0x20 DUP2 ADD SWAP1 POP SWAP2 SWAP1 POP JUMP JUMPDEST PUSH1 0x0 DUP2 SWAP1 POP PUSH1 0x20 DUP3 ADD SWAP1 POP SWAP2 SWAP1 POP JUMP JUMPDEST PUSH1 0x0 DUP2 SWAP1 POP PUSH1 0x20 DUP3 ADD SWAP1 POP SWAP2 SWAP1 POP JUMP JUMPDEST PUSH1 0x0 DUP2 MLOAD SWAP1 POP SWAP2 SWAP1 POP JUMP JUMPDEST PUSH1 0x0 DUP2 MLOAD SWAP1 POP SWAP2 SWAP1 POP JUMP JUMPDEST PUSH1 0x0 DUP2 MLOAD SWAP1 POP SWAP2 SWAP1 POP JUMP JUMPDEST PUSH1 0x0 PUSH1 0x20 DUP3 ADD SWAP1 POP SWAP2 SWAP1 POP JUMP JUMPDEST PUSH1 0x0 PUSH1 0x20 DUP3 ADD SWAP1 POP SWAP2 SWAP1 POP JUMP JUMPDEST PUSH1 0x0 DUP3 DUP3 MSTORE PUSH1 0x20 DUP3 ADD SWAP1 POP SWAP3 SWAP2 POP POP JUMP JUMPDEST PUSH1 0x0 DUP3 DUP3 MSTORE PUSH1 0x20 DUP3 ADD SWAP1 POP SWAP3 SWAP2 POP POP JUMP JUMPDEST PUSH1 0x0 DUP3 DUP3 MSTORE PUSH1 0x20 DUP3 ADD SWAP1 POP SWAP3 SWAP2 POP POP JUMP JUMPDEST PUSH1 0x0 DUP3 DUP3 MSTORE PUSH1 0x20 DUP3 ADD SWAP1 POP SWAP3 SWAP2 POP POP JUMP JUMPDEST PUSH1 0x0 DUP3 DUP3 MSTORE PUSH1 0x20 DUP3 ADD SWAP1 POP SWAP3 SWAP2 POP POP JUMP JUMPDEST PUSH1 0x0 PUSH2 0x1BC8 DUP3 PUSH2 0x1C76 JUMP JUMPDEST SWAP2 POP PUSH2 0x1BD3 DUP4 PUSH2 0x1C76 JUMP JUMPDEST SWAP3 POP DUP3 PUSH32 0xFFFFFFFFFFFFFFFFFFFFFFFFFFFFFFFFFFFFFFFFFFFFFFFFFFFFFFFFFFFFFFFF SUB DUP3 GT ISZERO PUSH2 0x1C08 JUMPI PUSH2 0x1C07 PUSH2 0x1D6E JUMP JUMPDEST JUMPDEST DUP3 DUP3 ADD SWAP1 POP SWAP3 SWAP2 POP POP JUMP JUMPDEST PUSH1 0x0 PUSH2 0x1C1E DUP3 PUSH2 0x1C76 JUMP JUMPDEST SWAP2 POP PUSH2 0x1C29 DUP4 PUSH2 0x1C76 JUMP JUMPDEST SWAP3 POP DUP3 PUSH2 0x1C39 JUMPI PUSH2 0x1C38 PUSH2 0x1D9D JUMP JUMPDEST JUMPDEST DUP3 DUP3 DIV SWAP1 POP SWAP3 SWAP2 POP POP JUMP JUMPDEST PUSH1 0x0 PUSH2 0x1C4F DUP3 PUSH2 0x1C56 JUMP JUMPDEST SWAP1 POP SWAP2 SWAP1 POP JUMP JUMPDEST PUSH1 0x0 PUSH20 0xFFFFFFFFFFFFFFFFFFFFFFFFFFFFFFFFFFFFFFFF DUP3 AND SWAP1 POP SWAP2 SWAP1 POP JUMP JUMPDEST PUSH1 0x0 DUP2 SWAP1 POP SWAP2 SWAP1 POP JUMP JUMPDEST DUP3 DUP2 DUP4 CALLDATACOPY PUSH1 0x0 DUP4 DUP4 ADD MSTORE POP POP POP JUMP JUMPDEST PUSH1 0x0 JUMPDEST DUP4 DUP2 LT ISZERO PUSH2 0x1CAD JUMPI DUP1 DUP3 ADD MLOAD DUP2 DUP5 ADD MSTORE PUSH1 0x20 DUP2 ADD SWAP1 POP PUSH2 0x1C92 JUMP JUMPDEST DUP4 DUP2 GT ISZERO PUSH2 0x1CBC JUMPI PUSH1 0x0 DUP5 DUP5 ADD MSTORE JUMPDEST POP POP POP POP JUMP JUMPDEST PUSH1 0x0 PUSH1 0x2 DUP3 DIV SWAP1 POP PUSH1 0x1 DUP3 AND DUP1 PUSH2 0x1CDA JUMPI PUSH1 0x7F DUP3 AND SWAP2 POP JUMPDEST PUSH1 0x20 DUP3 LT DUP2 EQ ISZERO PUSH2 0x1CEE JUMPI PUSH2 0x1CED PUSH2 0x1DCC JUMP JUMPDEST JUMPDEST POP SWAP2 SWAP1 POP JUMP JUMPDEST PUSH2 0x1CFD DUP3 PUSH2 0x1E3E JUMP JUMPDEST DUP2 ADD DUP2 DUP2 LT PUSH8 0xFFFFFFFFFFFFFFFF DUP3 GT OR ISZERO PUSH2 0x1D1C JUMPI PUSH2 0x1D1B PUSH2 0x1DFB JUMP JUMPDEST JUMPDEST DUP1 PUSH1 0x40 MSTORE POP POP POP JUMP JUMPDEST PUSH1 0x0 PUSH2 0x1D30 DUP3 PUSH2 0x1C76 JUMP JUMPDEST SWAP2 POP PUSH32 0xFFFFFFFFFFFFFFFFFFFFFFFFFFFFFFFFFFFFFFFFFFFFFFFFFFFFFFFFFFFFFFFF DUP3 EQ ISZERO PUSH2 0x1D63 JUMPI PUSH2 0x1D62 PUSH2 0x1D6E JUMP JUMPDEST JUMPDEST PUSH1 0x1 DUP3 ADD SWAP1 POP SWAP2 SWAP1 POP JUMP JUMPDEST PUSH32 0x4E487B7100000000000000000000000000000000000000000000000000000000 PUSH1 0x0 MSTORE PUSH1 0x11 PUSH1 0x4 MSTORE PUSH1 0x24 PUSH1 0x0 REVERT JUMPDEST PUSH32 0x4E487B7100000000000000000000000000000000000000000000000000000000 PUSH1 0x0 MSTORE PUSH1 0x12 PUSH1 0x4 MSTORE PUSH1 0x24 PUSH1 0x0 REVERT JUMPDEST PUSH32 0x4E487B7100000000000000000000000000000000000000000000000000000000 PUSH1 0x0 MSTORE PUSH1 0x22 PUSH1 0x4 MSTORE PUSH1 0x24 PUSH1 0x0 REVERT JUMPDEST PUSH32 0x4E487B7100000000000000000000000000000000000000000000000000000000 PUSH1 0x0 MSTORE PUSH1 0x41 PUSH1 0x4 MSTORE PUSH1 0x24 PUSH1 0x0 REVERT JUMPDEST PUSH1 0x0 DUP1 REVERT JUMPDEST PUSH1 0x0 DUP1 REVERT JUMPDEST PUSH1 0x0 DUP1 REVERT JUMPDEST PUSH1 0x0 DUP1 REVERT JUMPDEST PUSH1 0x0 PUSH1 0x1F NOT PUSH1 0x1F DUP4 ADD AND SWAP1 POP SWAP2 SWAP1 POP JUMP JUMPDEST PUSH32 0x50726F6475637420726174696E672073686F756C6420626520696E20312D3520 PUSH1 0x0 DUP3 ADD MSTORE PUSH32 0x72616E6765202100000000000000000000000000000000000000000000000000 PUSH1 0x20 DUP3 ADD MSTORE POP JUMP JUMPDEST PUSH32 0x50726F6475637469642072657175697265642021000000000000000000000000 PUSH1 0x0 DUP3 ADD MSTORE POP JUMP JUMPDEST PUSH32 0x50726F6475637420616C72656164792072657669657765642062792075736572 PUSH1 0x0 DUP3 ADD MSTORE PUSH32 0x2021000000000000000000000000000000000000000000000000000000000000 PUSH1 0x20 DUP3 ADD MSTORE POP JUMP JUMPDEST PUSH32 0x50726F64756374204E616D652072657175697265642021000000000000000000 PUSH1 0x0 DUP3 ADD MSTORE POP JUMP JUMPDEST PUSH2 0x1F48 DUP2 PUSH2 0x1C44 JUMP JUMPDEST DUP2 EQ PUSH2 0x1F53 JUMPI PUSH1 0x0 DUP1 REVERT JUMPDEST POP JUMP JUMPDEST PUSH2 0x1F5F DUP2 PUSH2 0x1C76 JUMP JUMPDEST DUP2 EQ PUSH2 0x1F6A JUMPI PUSH1 0x0 DUP1 REVERT JUMPDEST POP JUMP INVALID LOG2 PUSH5 0x6970667358 0x22 SLT KECCAK256 COINBASE 0x49 0xE7 0x4D CALLCODE 0x2D DUP11 0xAB 0x4B 0x27 0x2B 0x1E 0x22 0xAD PUSH7 0xC71B648B2CE75C 0xDF 0xB3 0xB6 0xE SSTORE DUP14 SWAP14 SWAP6 ADD 0xAD PUSH5 0x736F6C6343 STOP ADDMOD MOD STOP CALLER "
		},
		"gasEstimates": {
			"creation": {
				"codeDepositCost": "1619800",
				"executionCost": "6715",
				"totalCost": "1626515"
			},
			"external": {
				"TotalProducts()": "2473",
				"addProduct(string,string,uint256,string)": "infinite",
				"getAllProductPids()": "infinite",
				"getAllUsersForProduct(uint256)": "infinite",
				"getCurrentUserComments(uint256)": "infinite",
				"getCurrentUserRating(uint256)": "infinite",
				"getProduct(uint256)": "infinite",
				"getProductAvgRating(uint256)": "infinite",
				"getUserComments(uint256,address)": "infinite",
				"getUserDateOfReview(uint256,address)": "infinite",
				"getUserRating(uint256,address)": "infinite",
				"productIds(uint256)": "infinite",
				"reviewProduct(uint256,uint256,string,uint256)": "infinite"
			}
		},
		"methodIdentifiers": {
			"TotalProducts()": "d08e6fc3",
			"addProduct(string,string,uint256,string)": "f800d332",
			"getAllProductPids()": "d63fadc4",
			"getAllUsersForProduct(uint256)": "b7f9a5ab",
			"getCurrentUserComments(uint256)": "12655a6d",
			"getCurrentUserRating(uint256)": "49de03ec",
			"getProduct(uint256)": "b9db15b4",
			"getProductAvgRating(uint256)": "4d0aafa9",
			"getUserComments(uint256,address)": "12f27be6",
			"getUserDateOfReview(uint256,address)": "a61674c1",
			"getUserRating(uint256,address)": "260492cf",
			"productIds(uint256)": "cb51bba9",
			"reviewProduct(uint256,uint256,string,uint256)": "050cc5ce"
		}
	},
	"abi": [
		{
			"inputs": [],
			"stateMutability": "nonpayable",
			"type": "constructor"
		},
		{
			"anonymous": false,
			"inputs": [
				{
					"indexed": false,
					"internalType": "uint256",
					"name": "pid",
					"type": "uint256"
				},
				{
					"indexed": false,
					"internalType": "string",
					"name": "pname",
					"type": "string"
				}
			],
			"name": "addProductEvent",
			"type": "event"
		},
		{
			"anonymous": false,
			"inputs": [
				{
					"indexed": false,
					"internalType": "uint256",
					"name": "pid",
					"type": "uint256"
				},
				{
					"indexed": false,
					"internalType": "uint256",
					"name": "avgRating",
					"type": "uint256"
				}
			],
			"name": "reviewProductEvent",
			"type": "event"
		},
		{
			"inputs": [],
			"name": "TotalProducts",
			"outputs": [
				{
					"internalType": "uint256",
					"name": "",
					"type": "uint256"
				}
			],
			"stateMutability": "view",
			"type": "function"
		},
		{
			"inputs": [
				{
					"internalType": "string",
					"name": "pname",
					"type": "string"
				},
				{
					"internalType": "string",
					"name": "pdesc",
					"type": "string"
				},
				{
					"internalType": "uint256",
					"name": "price",
					"type": "uint256"
				},
				{
					"internalType": "string",
					"name": "imagehash",
					"type": "string"
				}
			],
			"name": "addProduct",
			"outputs": [],
			"stateMutability": "nonpayable",
			"type": "function"
		},
		{
			"inputs": [],
			"name": "getAllProductPids",
			"outputs": [
				{
					"internalType": "uint256[]",
					"name": "",
					"type": "uint256[]"
				}
			],
			"stateMutability": "view",
			"type": "function"
		},
		{
			"inputs": [
				{
					"internalType": "uint256",
					"name": "pid",
					"type": "uint256"
				}
			],
			"name": "getAllUsersForProduct",
			"outputs": [
				{
					"internalType": "address[]",
					"name": "",
					"type": "address[]"
				}
			],
			"stateMutability": "view",
			"type": "function"
		},
		{
			"inputs": [
				{
					"internalType": "uint256",
					"name": "pid",
					"type": "uint256"
				}
			],
			"name": "getCurrentUserComments",
			"outputs": [
				{
					"internalType": "string",
					"name": "",
					"type": "string"
				}
			],
			"stateMutability": "view",
			"type": "function"
		},
		{
			"inputs": [
				{
					"internalType": "uint256",
					"name": "pid",
					"type": "uint256"
				}
			],
			"name": "getCurrentUserRating",
			"outputs": [
				{
					"internalType": "uint256",
					"name": "",
					"type": "uint256"
				}
			],
			"stateMutability": "view",
			"type": "function"
		},
		{
			"inputs": [
				{
					"internalType": "uint256",
					"name": "pid",
					"type": "uint256"
				}
			],
			"name": "getProduct",
			"outputs": [
				{
					"components": [
						{
							"internalType": "string",
							"name": "productName",
							"type": "string"
						},
						{
							"internalType": "string",
							"name": "productDesc",
							"type": "string"
						},
						{
							"internalType": "uint256",
							"name": "productPrice",
							"type": "uint256"
						},
						{
							"internalType": "string",
							"name": "productHash",
							"type": "string"
						},
						{
							"internalType": "uint256",
							"name": "avgRating",
							"type": "uint256"
						},
						{
							"internalType": "uint256",
							"name": "totalReviewed",
							"type": "uint256"
						},
						{
							"internalType": "address",
							"name": "seller",
							"type": "address"
						},
						{
							"internalType": "address[]",
							"name": "users",
							"type": "address[]"
						}
					],
					"internalType": "struct ReviewSystem.Product",
					"name": "",
					"type": "tuple"
				}
			],
			"stateMutability": "view",
			"type": "function"
		},
		{
			"inputs": [
				{
					"internalType": "uint256",
					"name": "pid",
					"type": "uint256"
				}
			],
			"name": "getProductAvgRating",
			"outputs": [
				{
					"internalType": "uint256",
					"name": "",
					"type": "uint256"
				}
			],
			"stateMutability": "view",
			"type": "function"
		},
		{
			"inputs": [
				{
					"internalType": "uint256",
					"name": "pid",
					"type": "uint256"
				},
				{
					"internalType": "address",
					"name": "user",
					"type": "address"
				}
			],
			"name": "getUserComments",
			"outputs": [
				{
					"internalType": "string",
					"name": "",
					"type": "string"
				}
			],
			"stateMutability": "view",
			"type": "function"
		},
		{
			"inputs": [
				{
					"internalType": "uint256",
					"name": "pid",
					"type": "uint256"
				},
				{
					"internalType": "address",
					"name": "user",
					"type": "address"
				}
			],
			"name": "getUserDateOfReview",
			"outputs": [
				{
					"internalType": "uint256",
					"name": "",
					"type": "uint256"
				}
			],
			"stateMutability": "view",
			"type": "function"
		},
		{
			"inputs": [
				{
					"internalType": "uint256",
					"name": "pid",
					"type": "uint256"
				},
				{
					"internalType": "address",
					"name": "user",
					"type": "address"
				}
			],
			"name": "getUserRating",
			"outputs": [
				{
					"internalType": "uint256",
					"name": "",
					"type": "uint256"
				}
			],
			"stateMutability": "view",
			"type": "function"
		},
		{
			"inputs": [
				{
					"internalType": "uint256",
					"name": "",
					"type": "uint256"
				}
			],
			"name": "productIds",
			"outputs": [
				{
					"internalType": "uint256",
					"name": "",
					"type": "uint256"
				}
			],
			"stateMutability": "view",
			"type": "function"
		},
		{
			"inputs": [
				{
					"internalType": "uint256",
					"name": "productId",
					"type": "uint256"
				},
				{
					"internalType": "uint256",
					"name": "urating",
					"type": "uint256"
				},
				{
					"internalType": "string",
					"name": "ucomments",
					"type": "string"
				},
				{
					"internalType": "uint256",
					"name": "reviewDate",
					"type": "uint256"
				}
			],
			"name": "reviewProduct",
			"outputs": [],
			"stateMutability": "nonpayable",
			"type": "function"
		}
	]
}